{
  "contractName": "BlindAuction",
  "abi": [
    {
      "constant": true,
      "inputs": [
        {
          "name": "",
          "type": "address"
        },
        {
          "name": "",
          "type": "uint256"
        }
      ],
      "name": "bids",
      "outputs": [
        {
          "name": "blindedBid",
          "type": "bytes32"
        },
        {
          "name": "deposit",
          "type": "uint256"
        }
      ],
      "payable": false,
      "stateMutability": "view",
      "type": "function"
    },
    {
      "constant": true,
      "inputs": [],
      "name": "ended",
      "outputs": [
        {
          "name": "",
          "type": "bool"
        }
      ],
      "payable": false,
      "stateMutability": "view",
      "type": "function"
    },
    {
      "constant": true,
      "inputs": [],
      "name": "beneficiary",
      "outputs": [
        {
          "name": "",
          "type": "address"
        }
      ],
      "payable": false,
      "stateMutability": "view",
      "type": "function"
    },
    {
      "constant": true,
      "inputs": [],
      "name": "biddingEnd",
      "outputs": [
        {
          "name": "",
          "type": "uint256"
        }
      ],
      "payable": false,
      "stateMutability": "view",
      "type": "function"
    },
    {
      "constant": true,
      "inputs": [],
      "name": "highestBidder",
      "outputs": [
        {
          "name": "",
          "type": "address"
        }
      ],
      "payable": false,
      "stateMutability": "view",
      "type": "function"
    },
    {
      "constant": true,
      "inputs": [],
      "name": "revealEnd",
      "outputs": [
        {
          "name": "",
          "type": "uint256"
        }
      ],
      "payable": false,
      "stateMutability": "view",
      "type": "function"
    },
    {
      "constant": true,
      "inputs": [],
      "name": "highestBid",
      "outputs": [
        {
          "name": "",
          "type": "uint256"
        }
      ],
      "payable": false,
      "stateMutability": "view",
      "type": "function"
    },
    {
      "inputs": [
        {
          "name": "_biddingTime",
          "type": "uint256"
        },
        {
          "name": "_revealTime",
          "type": "uint256"
        },
        {
          "name": "_beneficiary",
          "type": "address"
        }
      ],
      "payable": false,
      "stateMutability": "nonpayable",
      "type": "constructor"
    },
    {
      "anonymous": false,
      "inputs": [
        {
          "indexed": false,
          "name": "winner",
          "type": "address"
        },
        {
          "indexed": false,
          "name": "highestBid",
          "type": "uint256"
        }
      ],
      "name": "AuctionEnded",
      "type": "event"
    },
    {
      "constant": false,
      "inputs": [
        {
          "name": "_blindedBid",
          "type": "bytes32"
        }
      ],
      "name": "bid",
      "outputs": [],
      "payable": true,
      "stateMutability": "payable",
      "type": "function"
    },
    {
      "constant": false,
      "inputs": [],
      "name": "revel",
      "outputs": [],
      "payable": false,
      "stateMutability": "nonpayable",
      "type": "function"
    }
  ],
  "bytecode": "0x608060405234801561001057600080fd5b506040516060806104e7833981018060405281019080805190602001909291908051906020019092919080519060200190929190505050806000806101000a81548173ffffffffffffffffffffffffffffffffffffffff021916908373ffffffffffffffffffffffffffffffffffffffff160217905550824201600181905550816001540160028190555050505061043a806100ad6000396000f300608060405260043610610099576000357c0100000000000000000000000000000000000000000000000000000000900463ffffffff16806301495c1c1461009e57806312fa6feb1461010e57806338af3eed1461013d578063423b217f1461019457806391f90157146101bf578063957bb1e014610216578063a6e664771461023a578063d57bde7914610265578063f8587f0914610290575b600080fd5b3480156100aa57600080fd5b506100e9600480360381019080803573ffffffffffffffffffffffffffffffffffffffff169060200190929190803590602001909291905050506102a7565b6040518083600019166000191681526020018281526020019250505060405180910390f35b34801561011a57600080fd5b506101236102e7565b604051808215151515815260200191505060405180910390f35b34801561014957600080fd5b506101526102fa565b604051808273ffffffffffffffffffffffffffffffffffffffff1673ffffffffffffffffffffffffffffffffffffffff16815260200191505060405180910390f35b3480156101a057600080fd5b506101a961031f565b6040518082815260200191505060405180910390f35b3480156101cb57600080fd5b506101d4610325565b604051808273ffffffffffffffffffffffffffffffffffffffff1673ffffffffffffffffffffffffffffffffffffffff16815260200191505060405180910390f35b610238600480360381019080803560001916906020019092919050505061034b565b005b34801561024657600080fd5b5061024f610400565b6040518082815260200191505060405180910390f35b34801561027157600080fd5b5061027a610406565b6040518082815260200191505060405180910390f35b34801561029c57600080fd5b506102a561040c565b005b6004602052816000526040600020818154811015156102c257fe5b9060005260206000209060020201600091509150508060000154908060010154905082565b600360009054906101000a900460ff1681565b6000809054906101000a900473ffffffffffffffffffffffffffffffffffffffff1681565b60015481565b600560009054906101000a900473ffffffffffffffffffffffffffffffffffffffff1681565b600154804210151561035c57600080fd5b600460003373ffffffffffffffffffffffffffffffffffffffff1673ffffffffffffffffffffffffffffffffffffffff168152602001908152602001600020604080519081016040528084600019168152602001348152509080600181540180825580915050906001820390600052602060002090600202016000909192909190915060008201518160000190600019169055602082015181600101555050505050565b60025481565b60065481565b5600a165627a7a7230582015331726af5eb77a3da28006ad2ebbf298eb7f6df0d49123e61384ea688cde8e0029",
  "source": "/**\n\nThe previous open auction is extended to a blind auction in the following. The advantage of a blind auction is that there is no time pressure towards the end of the bidding period. Creating a blind auction on a transparent computing platform might sound like a contradiction, but cryptography comes to the rescue.\n\n上一个拍卖系统可以再做优化以扩展到下面的盲拍系统。盲拍系统的优势是不会有最后时间节点的竞标压力。在一个透明的计算系统里面创建一个盲拍系统看起来有点矛盾，但是通过密码学技术我们可以修正这个问题。\n\nDuring the bidding period, a bidder does not actually send her bid, but only a hashed version of it. Since it is currently considered practically impossible to find two (sufficiently long) values whose hash values are equal, the bidder commits to the bid by that. After the end of the bidding period, the bidders have to reveal their bids: They send their values unencrypted and the contract checks that the hash value is the same as the one provided during the bidding period.\n\n在投标期间，投标者不用实际发送他的标，只是发送了一个带有版本信息的hash值。由于无法找到两个相同的hash（计算上的不可行），因此使用hash值可以确保投标人是否投过标。投标结束，投标人必须公开他们的投标：他们发送未加密的标，合约会根据hash值自动校验是否与投标期间的值相同。\n\nAnother challenge is how to make the auction binding and blind at the same time: The only way to prevent the bidder from just not sending the money after he won the auction is to make her send it together with the bid. Since value transfers cannot be blinded in Ethereum, anyone can see the value.\n\n另一个挑战是在保证盲拍的同时保证约束力：防止投标人中标后不支付的唯一方式就是让投标人在投标的时刻就支付价值。然而价值的转换是不能被隐藏的，每个人都可以看到。\n\nThe following contract solves this problem by accepting any value that is larger than the highest bid. Since this can of course only be checked during the reveal phase, some bids might be invalid, and this is on purpose (it even provides an explicit flag to place invalid bids with high value transfers): Bidders can confuse competition by placing several high or low invalid bids.\n\n下面的合约通过接收任何大于最高价值投标的标来解决这个难题。因为这当然只能在披露阶段进行检查，所以有些出价可能是无效的，这是有意的（它甚至提供了一个明确的标志，用高价值转让放置无效的投标）：投标人可以通过放置几个高或 低无效出价。\n\n*/\n\npragma solidity >0.4.23 <0.5.0;\n\ncontract BlindAuction {\n\tstruct Bid {\n\t\tbytes32 blindedBid;\n\t\tuint deposit;\n\t}\n\n\taddress public beneficiary;\n\tuint public biddingEnd;\n\tuint public revealEnd;\n\tbool public ended;\n\n\tmapping(address => Bid[]) public bids;\n\n\taddress public highestBidder;\n\tuint public highestBid;\n\n\tmapping(address => uint) pendingReturns;\n\n\tevent AuctionEnded(address winner, uint highestBid);\n\n\tmodifier onlyBefore(uint _time) { \n\t\trequire (now < _time); \n\t\t_; \n\t}\n\tmodifier onlyAfter(uint _time) { \n\t\trequire (now > _time); \n\t\t_; \n\t}\n\t\n\tconstructor(uint _biddingTime, uint _revealTime, address _beneficiary) public {\n\t\tbeneficiary = _beneficiary;\n\t\tbiddingEnd = now + _biddingTime;\n\t\trevealEnd = biddingEnd + _revealTime;\n\t}\n\n\tfunction bid(bytes32 _blindedBid) public payable onlyBefore(biddingEnd){\n\t\tbids[msg.sender].push(Bid({\n\t\t\tblindedBid:_blindedBid,\n\t\t\tdeposit:msg.value\n\t\t\t}));\n\t}\n\n\tfunction revel(){\n\t\t\n\t}\n\t\n}\n\n\n\n\n\n\n\n\n\n\n\n\n\n\n\n\n\n\n\n\n\n\n\n\n",
  "sourcePath": "/Users/jiangsong/Documents/learn/dapp/truffle-dapp/contracts/BlindAuction.sol",
  "compiler": {
    "name": "solc",
    "version": "0.4.24+commit.e67f0147.Emscripten.clang"
  },
  "schemaVersion": "2.0.1",
  "updatedAt": "2018-07-03T11:33:33.702Z"
}