{
  "contractName": "SImpleAuction",
  "abi": [
    {
      "constant": true,
      "inputs": [],
      "name": "beneficiary",
      "outputs": [
        {
          "name": "",
          "type": "address"
        }
      ],
      "payable": false,
      "stateMutability": "view",
      "type": "function"
    },
    {
      "constant": true,
      "inputs": [],
      "name": "highestBidder",
      "outputs": [
        {
          "name": "",
          "type": "address"
        }
      ],
      "payable": false,
      "stateMutability": "view",
      "type": "function"
    },
    {
      "constant": true,
      "inputs": [],
      "name": "highestBid",
      "outputs": [
        {
          "name": "",
          "type": "uint256"
        }
      ],
      "payable": false,
      "stateMutability": "view",
      "type": "function"
    },
    {
      "inputs": [
        {
          "name": "_bidingTime",
          "type": "uint256"
        },
        {
          "name": "_beneficiary",
          "type": "address"
        }
      ],
      "payable": false,
      "stateMutability": "nonpayable",
      "type": "constructor"
    },
    {
      "anonymous": false,
      "inputs": [
        {
          "indexed": false,
          "name": "bidder",
          "type": "address"
        },
        {
          "indexed": false,
          "name": "amount",
          "type": "uint256"
        }
      ],
      "name": "HighestBidIncreased",
      "type": "event"
    },
    {
      "anonymous": false,
      "inputs": [
        {
          "indexed": false,
          "name": "winner",
          "type": "address"
        },
        {
          "indexed": false,
          "name": "amount",
          "type": "uint256"
        }
      ],
      "name": "AuctionEnded",
      "type": "event"
    },
    {
      "constant": false,
      "inputs": [],
      "name": "bid",
      "outputs": [],
      "payable": true,
      "stateMutability": "payable",
      "type": "function"
    },
    {
      "constant": false,
      "inputs": [],
      "name": "withdraw",
      "outputs": [
        {
          "name": "",
          "type": "bool"
        }
      ],
      "payable": false,
      "stateMutability": "nonpayable",
      "type": "function"
    },
    {
      "constant": false,
      "inputs": [],
      "name": "auctionEnd",
      "outputs": [],
      "payable": false,
      "stateMutability": "nonpayable",
      "type": "function"
    }
  ],
  "bytecode": "0x608060405234801561001057600080fd5b506040516040806108408339810180604052810190808051906020019092919080519060200190929190505050806000806101000a81548173ffffffffffffffffffffffffffffffffffffffff021916908373ffffffffffffffffffffffffffffffffffffffff16021790555081420160018190555050506107a9806100976000396000f300608060405260043610610078576000357c0100000000000000000000000000000000000000000000000000000000900463ffffffff1680631998aeef1461007d5780632a24f46c1461008757806338af3eed1461009e5780633ccfd60b146100f557806391f9015714610124578063d57bde791461017b575b600080fd5b6100856101a6565b005b34801561009357600080fd5b5061009c6103cc565b005b3480156100aa57600080fd5b506100b3610607565b604051808273ffffffffffffffffffffffffffffffffffffffff1673ffffffffffffffffffffffffffffffffffffffff16815260200191505060405180910390f35b34801561010157600080fd5b5061010a61062c565b604051808215151515815260200191505060405180910390f35b34801561013057600080fd5b50610139610751565b604051808273ffffffffffffffffffffffffffffffffffffffff1673ffffffffffffffffffffffffffffffffffffffff16815260200191505060405180910390f35b34801561018757600080fd5b50610190610777565b6040518082815260200191505060405180910390f35b6001544211151515610220576040517f08c379a00000000000000000000000000000000000000000000000000000000081526004018080602001828103825260148152602001807f41756374696f6e20616c726561647920656e642100000000000000000000000081525060200191505060405180910390fd5b60035434111515610299576040517f08c379a000000000000000000000000000000000000000000000000000000000815260040180806020018281038252601d8152602001807f546865726520616c72656164792069732061206869676865722062696400000081525060200191505060405180910390fd5b60006003541415156103175760035460046000600260009054906101000a900473ffffffffffffffffffffffffffffffffffffffff1673ffffffffffffffffffffffffffffffffffffffff1673ffffffffffffffffffffffffffffffffffffffff168152602001908152602001600020600082825401925050819055505b33600260006101000a81548173ffffffffffffffffffffffffffffffffffffffff021916908373ffffffffffffffffffffffffffffffffffffffff160217905550346003819055507ff4757a49b326036464bec6fe419a4ae38c8a02ce3e68bf0809674f6aab8ad3003334604051808373ffffffffffffffffffffffffffffffffffffffff1673ffffffffffffffffffffffffffffffffffffffff1681526020018281526020019250505060405180910390a1565b6001544210151515610446576040517f08c379a00000000000000000000000000000000000000000000000000000000081526004018080602001828103825260168152602001807f41756374696f6e206e6f742079657420656e6465642e0000000000000000000081525060200191505060405180910390fd5b600560009054906101000a900460ff161515156104f1576040517f08c379a00000000000000000000000000000000000000000000000000000000081526004018080602001828103825260238152602001807f61756374696f6e456e642068617320616c7265616479206265656e2063616c6c81526020017f65642e000000000000000000000000000000000000000000000000000000000081525060400191505060405180910390fd5b6001600560006101000a81548160ff0219169083151502179055507fdaec4582d5d9595688c8c98545fdd1c696d41c6aeaeb636737e84ed2f5c00eda600260009054906101000a900473ffffffffffffffffffffffffffffffffffffffff16600354604051808373ffffffffffffffffffffffffffffffffffffffff1673ffffffffffffffffffffffffffffffffffffffff1681526020018281526020019250505060405180910390a16000809054906101000a900473ffffffffffffffffffffffffffffffffffffffff1673ffffffffffffffffffffffffffffffffffffffff166108fc6003549081150290604051600060405180830381858888f19350505050158015610604573d6000803e3d6000fd5b50565b6000809054906101000a900473ffffffffffffffffffffffffffffffffffffffff1681565b600080600460003373ffffffffffffffffffffffffffffffffffffffff1673ffffffffffffffffffffffffffffffffffffffff1681526020019081526020016000205490506000811115610748576000600460003373ffffffffffffffffffffffffffffffffffffffff1673ffffffffffffffffffffffffffffffffffffffff168152602001908152602001600020819055503373ffffffffffffffffffffffffffffffffffffffff166108fc829081150290604051600060405180830381858888f1935050505015156107475780600460003373ffffffffffffffffffffffffffffffffffffffff1673ffffffffffffffffffffffffffffffffffffffff168152602001908152602001600020819055506000915061074d565b5b600191505b5090565b600260009054906101000a900473ffffffffffffffffffffffffffffffffffffffff1681565b600354815600a165627a7a723058203a8e5d41199ff1bba9c915d87b5b615d4859aee26fbd649fd8fd6846e013e98c0029",
  "source": "/**\n\nBlind Auction  盲拍\n\nIn this section, we will show how easy it is to create a completely blind auction contract on Ethereum. We will start with an open auction where everyone can see the bids that are made and then extend this contract into a blind auction where it is not possible to see the actual bid until the bidding period ends.\n在本节中我们将会展示使用以太坊创建一个盲拍可约是多么便捷。我们先以公开拍卖开始，公开拍卖过程中，每个人都可以以看到所有投标，然后我们会将这份合约扩展到盲拍，即在竞标期间没法看到投标，直到竞标结束才可以看到。\n\nSimple Open Auction 简单的公开拍卖\n\nThe general idea of the following simple auction contract is that everyone can send their bids during a bidding period. The bids already include sending money / ether in order to bind the bidders to their bid. If the highest bid is raised, the previously highest bidder gets her money back. After the end of the bidding period, the contract has to be called manually for the beneficiary to receive his money - contracts cannot activate themselves.\n在下面这份简单的公开拍卖合约中，竞标期间每个人都可以投标。投标的方式包括发送以太币或者金钱，以使他们的投标和他们本身绑定。如果有更高的标出现，之前的投标者就可以拿回他们的钱了。投标结束后，合同必须手动调用，让受益人接收他的钱，合约本身不会自动执行。\n\n*/\n\npragma solidity ^0.4.22;\n\ncontract SImpleAuction {\n\n\t// Parameters of the auction. Times are either\n    // absolute unix timestamps (seconds since 1970-01-01)\n    // or time periods in seconds.\n    // 参数定义。时间可以是unix时间戳，或者持续秒数。\n\taddress public beneficiary;\n\tuint public auctionEnd;\n\n\t// Current state of the auction.\n\t// 拍卖的当前状态，记录最高投标者和最高价。\n\taddress public highestBidder;\n\tuint public highestBid;\n\n\t// Allowed withdrawals of previous bids\n\t// 允许撤回之前的标\n\tmapping(address => uint) pendingRetruns;\n\n\t// Set to true at the end, disallows any change\n\t// 拍卖结束的控制变量。结束设置为true，不允许再改变。\n\tbool ended;\n\n\t// Events that will be fired on changes.\n\t// 改变发生的时候，触发的事件\n\tevent HighestBidIncreased(address bidder, uint amount);\n\tevent AuctionEnded(address winner, uint amount);\n\n\t// The following is a so-called natspec comment,\n    // recognizable by the three slashes.\n    // It will be shown when the user is asked to\n    // confirm a transaction.\n    // 下面的以///开头的是natspec评论，它们将会在用户发起确认交易的时候提示给用户\n\n    /// Create a simple auction with `_biddingTime`\n    /// seconds bidding time on behalf of the\n    /// beneficiary address `_beneficiary`.\n    /// 创建有个简单的拍卖，包含了拍卖期，和受益人信息。\n\tconstructor(uint _bidingTime, address _beneficiary)public{\n\t\tbeneficiary = _beneficiary;\n\t\tauctionEnd = now + _bidingTime;\n\t}\n\n\t/// Bid on the auction with the value sent\n    /// together with this transaction.\n    /// The value will only be refunded if the\n    /// auction is not won.\n    /// 伴随着交易发起一次竞标。竞标的金额会被退回，如果最后没有赢得拍卖。\n\tfunction bid() public payable{\n\t\t// No arguments are necessary, all\n        // information is already part of\n        // the transaction. The keyword payable\n        // is required for the function to\n        // be able to receive Ether.\n        // 由于所有的信息已经被包含在交易中，故本函数不需要参数。\n        // 由于需要接收以太币，该函数需要是可支付的。\n\n        // Revert the call if the bidding\n        // period is over.\n        // 如果拍卖结束，回滚调用。\n\t\trequire(now <= auctionEnd, 'Auction already end!');\n\n\t\t// If the bid is not higher, send the\n        // money back.\n        // 如果投标价格低于目前的最高投标价，给出提示，将money退回。\n\t\trequire(msg.value > highestBid, 'There already is a higher bid');\n\n\t\tif(highestBid != 0){\n\t\t\t// Sending back the money by simply using\n            // highestBidder.send(highestBid) is a security risk\n            // because it could execute an untrusted contract.\n            // It is always safer to let the recipients\n            // withdraw their money themselves.\n            // 简单地使用函数highestBidder.send(highestBid)退回资金是有安全隐患的，因为它可以执行不受信任的合约\n            // 通常来说让收款人自己回收资金是相对比较安全的。\n\t\t\tpendingRetruns[highestBidder] += highestBid;\n\t\t}\n\n\t\thighestBidder = msg.sender;\n\t\thighestBid = msg.value;\n\t\temit HighestBidIncreased(msg.sender, msg.value);\n\n\t}\n\n\t/// Withdraw a bid that was overbid.\n\t/// 撤销已投出的标\n\tfunction withdraw() public returns(bool){\n\t\tuint amount = pendingRetruns[msg.sender];\n\t\tif(amount > 0){\n\t\t\t// It is important to set this to zero because the recipient\n            // can call this function again as part of the receiving call\n            // before `send` returns.\n            // 将它设置为0是必要的，因为接收者，可能在send函数返回之前，再次调用该函数。\n\t\t\tpendingRetruns[msg.sender] = 0;\n\n\t\t\tif(!msg.sender.send(amount)){\n\t\t\t\t// No need to call throw here, just reset the amount owing\n\t\t\t\tpendingRetruns[msg.sender] = amount;\n\t\t\t\treturn false;\n\t\t\t}\n\t\t}\n\t\treturn true;\n\t}\n\n\t/// End the auction and send the highest bid\n    /// to the beneficiary.\n    /// 拍卖结束，将最高的竞价发送给受益人\n\tfunction auctionEnd() public {\n\n\t\t// It is a good guideline to structure functions that interact\n        // with other contracts (i.e. they call functions or send Ether)\n        // into three phases:\n        // 将与其他合约的交互分成三个阶段是一个好的指引。例如：调用函数，或者发送Ether\n        // 1. checking conditions\n        // 1.检查条件\n        // 2. performing actions (potentially changing conditions)\n        // 2、执行行为（潜在的条件变化）\n        // 3. interacting with other contracts\n        // 3.与其他合约交互\n        // If these phases are mixed up, the other contract could call\n        // back into the current contract and modify the state or cause\n        // effects (ether payout) to be performed multiple times.\n        // If functions called internally include interaction with external\n        // contracts, they also have to be considered interaction with\n        // external contracts.\n        // 如果这些阶段混合在一起，其他合约可能回调到合约中，频繁的修改状态或影响执行效果。\n        // 如果函数的内部调用包含了与外部合约的交互，那么与外部合约的交互也是必须要考虑的。\n\n        // 1. Conditions\n        // 1、条件\n\t\trequire(now >= auctionEnd, 'Auction not yet ended.');\n\t\trequire(!ended, 'auctionEnd has already been called.');\n\n\t\t// 2. Effects\n\t\t// 2、效果\n\t\tended = true;\n\t\temit AuctionEnded(highestBidder, highestBid);\n\n\t\t// 3. Interaction\n\t\t// 3、交互\n\t\tbeneficiary.transfer(highestBid);\n\t}\n\n}\n\n\n\n\n\n\n\n\n\n\n\n\n\n\n\n\n\n\n\n\n\n\n\n",
  "sourcePath": "/Users/jiangsong/Documents/learn/dapp/truffle-dapp/contracts/SimpleAuction.sol",
  "compiler": {
    "name": "solc",
    "version": "0.4.24+commit.e67f0147.Emscripten.clang"
  },
  "schemaVersion": "2.0.1",
  "updatedAt": "2018-07-03T11:33:33.704Z"
}