{
  "contractName": "SportCrypt",
  "abi": [
    {
      "inputs": [],
      "payable": false,
      "stateMutability": "nonpayable",
      "type": "constructor"
    },
    {
      "payable": true,
      "stateMutability": "payable",
      "type": "fallback"
    },
    {
      "anonymous": false,
      "inputs": [
        {
          "indexed": true,
          "name": "account",
          "type": "address"
        },
        {
          "indexed": false,
          "name": "oldAmount",
          "type": "uint256"
        },
        {
          "indexed": false,
          "name": "newAmount",
          "type": "uint256"
        }
      ],
      "name": "LogBalanceChange",
      "type": "event"
    },
    {
      "anonymous": false,
      "inputs": [
        {
          "indexed": true,
          "name": "account",
          "type": "address"
        }
      ],
      "name": "LogDeposit",
      "type": "event"
    },
    {
      "anonymous": false,
      "inputs": [
        {
          "indexed": true,
          "name": "account",
          "type": "address"
        }
      ],
      "name": "LogWithdraw",
      "type": "event"
    },
    {
      "anonymous": false,
      "inputs": [
        {
          "indexed": true,
          "name": "takerAccount",
          "type": "address"
        },
        {
          "indexed": true,
          "name": "makerAccount",
          "type": "address"
        },
        {
          "indexed": true,
          "name": "matchId",
          "type": "uint256"
        },
        {
          "indexed": false,
          "name": "orderHash",
          "type": "uint256"
        },
        {
          "indexed": false,
          "name": "orderDirection",
          "type": "uint8"
        },
        {
          "indexed": false,
          "name": "price",
          "type": "uint8"
        },
        {
          "indexed": false,
          "name": "longAmount",
          "type": "uint256"
        },
        {
          "indexed": false,
          "name": "newLongPosition",
          "type": "int256"
        },
        {
          "indexed": false,
          "name": "shortAmount",
          "type": "uint256"
        },
        {
          "indexed": false,
          "name": "newShortPosition",
          "type": "int256"
        }
      ],
      "name": "LogTrade",
      "type": "event"
    },
    {
      "anonymous": false,
      "inputs": [
        {
          "indexed": true,
          "name": "takerAccount",
          "type": "address"
        },
        {
          "indexed": true,
          "name": "makerAccount",
          "type": "address"
        },
        {
          "indexed": true,
          "name": "matchId",
          "type": "uint256"
        },
        {
          "indexed": false,
          "name": "orderHash",
          "type": "uint256"
        },
        {
          "indexed": false,
          "name": "status",
          "type": "uint16"
        }
      ],
      "name": "LogTradeError",
      "type": "event"
    },
    {
      "anonymous": false,
      "inputs": [
        {
          "indexed": true,
          "name": "account",
          "type": "address"
        },
        {
          "indexed": true,
          "name": "matchId",
          "type": "uint256"
        },
        {
          "indexed": false,
          "name": "orderHash",
          "type": "uint256"
        }
      ],
      "name": "LogOrderCancel",
      "type": "event"
    },
    {
      "anonymous": false,
      "inputs": [
        {
          "indexed": true,
          "name": "matchId",
          "type": "uint256"
        },
        {
          "indexed": false,
          "name": "finalPrice",
          "type": "uint8"
        }
      ],
      "name": "LogFinalizeMatch",
      "type": "event"
    },
    {
      "anonymous": false,
      "inputs": [
        {
          "indexed": true,
          "name": "account",
          "type": "address"
        },
        {
          "indexed": true,
          "name": "matchId",
          "type": "uint256"
        },
        {
          "indexed": false,
          "name": "amount",
          "type": "uint256"
        }
      ],
      "name": "LogClaim",
      "type": "event"
    },
    {
      "constant": false,
      "inputs": [
        {
          "name": "newOwner",
          "type": "address"
        }
      ],
      "name": "changeOwner",
      "outputs": [],
      "payable": false,
      "stateMutability": "nonpayable",
      "type": "function"
    },
    {
      "constant": false,
      "inputs": [
        {
          "name": "addr",
          "type": "address"
        }
      ],
      "name": "addAdmin",
      "outputs": [],
      "payable": false,
      "stateMutability": "nonpayable",
      "type": "function"
    },
    {
      "constant": false,
      "inputs": [
        {
          "name": "addr",
          "type": "address"
        }
      ],
      "name": "removeAdmin",
      "outputs": [],
      "payable": false,
      "stateMutability": "nonpayable",
      "type": "function"
    },
    {
      "constant": false,
      "inputs": [],
      "name": "deposit",
      "outputs": [],
      "payable": true,
      "stateMutability": "payable",
      "type": "function"
    },
    {
      "constant": false,
      "inputs": [
        {
          "name": "amount",
          "type": "uint256"
        }
      ],
      "name": "withdraw",
      "outputs": [],
      "payable": false,
      "stateMutability": "nonpayable",
      "type": "function"
    },
    {
      "constant": false,
      "inputs": [
        {
          "name": "order",
          "type": "uint256[3]"
        },
        {
          "name": "r",
          "type": "bytes32"
        },
        {
          "name": "s",
          "type": "bytes32"
        },
        {
          "name": "v",
          "type": "uint8"
        }
      ],
      "name": "cancelOrder",
      "outputs": [],
      "payable": false,
      "stateMutability": "nonpayable",
      "type": "function"
    },
    {
      "constant": false,
      "inputs": [
        {
          "name": "amount",
          "type": "uint256"
        },
        {
          "name": "order",
          "type": "uint256[3]"
        },
        {
          "name": "r",
          "type": "bytes32"
        },
        {
          "name": "s",
          "type": "bytes32"
        },
        {
          "name": "v",
          "type": "uint8"
        }
      ],
      "name": "trade",
      "outputs": [],
      "payable": false,
      "stateMutability": "nonpayable",
      "type": "function"
    },
    {
      "constant": false,
      "inputs": [
        {
          "name": "matchId",
          "type": "uint256"
        },
        {
          "name": "finalPrice",
          "type": "uint8"
        },
        {
          "name": "r",
          "type": "bytes32"
        },
        {
          "name": "s",
          "type": "bytes32"
        },
        {
          "name": "v",
          "type": "uint8"
        }
      ],
      "name": "claim",
      "outputs": [],
      "payable": false,
      "stateMutability": "nonpayable",
      "type": "function"
    },
    {
      "constant": false,
      "inputs": [
        {
          "name": "matchId",
          "type": "uint256"
        }
      ],
      "name": "recoverFunds",
      "outputs": [],
      "payable": false,
      "stateMutability": "nonpayable",
      "type": "function"
    },
    {
      "constant": true,
      "inputs": [],
      "name": "getOwner",
      "outputs": [
        {
          "name": "",
          "type": "address"
        }
      ],
      "payable": false,
      "stateMutability": "view",
      "type": "function"
    },
    {
      "constant": true,
      "inputs": [
        {
          "name": "addr",
          "type": "address"
        }
      ],
      "name": "isAdmin",
      "outputs": [
        {
          "name": "",
          "type": "bool"
        }
      ],
      "payable": false,
      "stateMutability": "view",
      "type": "function"
    },
    {
      "constant": true,
      "inputs": [
        {
          "name": "addr",
          "type": "address"
        }
      ],
      "name": "getBalance",
      "outputs": [
        {
          "name": "",
          "type": "uint256"
        }
      ],
      "payable": false,
      "stateMutability": "view",
      "type": "function"
    },
    {
      "constant": true,
      "inputs": [
        {
          "name": "matchId",
          "type": "uint256"
        }
      ],
      "name": "getMatchInfo",
      "outputs": [
        {
          "name": "",
          "type": "uint64"
        },
        {
          "name": "",
          "type": "bool"
        },
        {
          "name": "",
          "type": "uint8"
        }
      ],
      "payable": false,
      "stateMutability": "view",
      "type": "function"
    },
    {
      "constant": true,
      "inputs": [
        {
          "name": "matchId",
          "type": "uint256"
        },
        {
          "name": "addr",
          "type": "address"
        }
      ],
      "name": "getPosition",
      "outputs": [
        {
          "name": "",
          "type": "int256"
        }
      ],
      "payable": false,
      "stateMutability": "view",
      "type": "function"
    },
    {
      "constant": true,
      "inputs": [
        {
          "name": "orderHash",
          "type": "uint256"
        }
      ],
      "name": "getFilledAmount",
      "outputs": [
        {
          "name": "",
          "type": "uint256"
        }
      ],
      "payable": false,
      "stateMutability": "view",
      "type": "function"
    },
    {
      "constant": true,
      "inputs": [
        {
          "name": "myAddr",
          "type": "address"
        },
        {
          "name": "matchIds",
          "type": "uint256[16]"
        }
      ],
      "name": "checkMatchBatch",
      "outputs": [
        {
          "name": "myPosition",
          "type": "int256[16]"
        },
        {
          "name": "finalized",
          "type": "bool[16]"
        },
        {
          "name": "finalPrice",
          "type": "uint8[16]"
        }
      ],
      "payable": false,
      "stateMutability": "view",
      "type": "function"
    },
    {
      "constant": true,
      "inputs": [
        {
          "name": "input",
          "type": "uint256[48]"
        }
      ],
      "name": "checkOrderBatch",
      "outputs": [
        {
          "name": "status",
          "type": "uint16[16]"
        },
        {
          "name": "amount",
          "type": "uint256[16]"
        }
      ],
      "payable": false,
      "stateMutability": "view",
      "type": "function"
    }
  ],
  "bytecode": "0x608060405234801561001057600080fd5b50336000806101000a81548173ffffffffffffffffffffffffffffffffffffffff021916908373ffffffffffffffffffffffffffffffffffffffff160217905550612da5806100606000396000f3006080604052600436106100f1576000357c0100000000000000000000000000000000000000000000000000000000900463ffffffff1680631785f53c146100f657806324d7806c146101395780632e1a7d4d146101945780633448ec4a146101c15780634ab358c7146102a95780634b561a16146102d6578063641bbdfe1461034357806370480275146103a65780638671b894146103e9578063893d20e81461043f578063a6f9dae114610496578063ab47f1bf146104d9578063b15a36471461051a578063cb1579ec1461057a578063d0e30db014610613578063d29f541d1461061d578063f8b2cb4f1461067e575b600080fd5b34801561010257600080fd5b50610137600480360381019080803573ffffffffffffffffffffffffffffffffffffffff1690602001909291905050506106d5565b005b34801561014557600080fd5b5061017a600480360381019080803573ffffffffffffffffffffffffffffffffffffffff16906020019092919050505061078b565b604051808215151515815260200191505060405180910390f35b3480156101a057600080fd5b506101bf600480360381019080803590602001909291905050506107e1565b005b3480156101cd57600080fd5b5061020d600480360381019080803573ffffffffffffffffffffffffffffffffffffffff169060200190929190806102000190919291929050505061096d565b6040518084601060200280838360005b8381101561023857808201518184015260208101905061021d565b5050505090500183601060200280838360005b8381101561026657808201518184015260208101905061024b565b5050505090500182601060200280838360005b83811015610294578082015181840152602081019050610279565b50505050905001935050505060405180910390f35b3480156102b557600080fd5b506102d460048036038101908080359060200190929190505050610aac565b005b3480156102e257600080fd5b5061030160048036038101908080359060200190929190505050610beb565b604051808467ffffffffffffffff1667ffffffffffffffff168152602001831515151581526020018260ff1660ff168152602001935050505060405180910390f35b34801561034f57600080fd5b506103a460048036038101908080359060200190929190803560ff16906020019092919080356000191690602001909291908035600019169060200190929190803560ff169060200190929190505050610c51565b005b3480156103b257600080fd5b506103e7600480360381019080803573ffffffffffffffffffffffffffffffffffffffff1690602001909291905050506110fc565b005b3480156103f557600080fd5b5061043d6004803603810190808060600190919291929080356000191690602001909291908035600019169060200190929190803560ff1690602001909291905050506111b1565b005b34801561044b57600080fd5b506104546112c9565b604051808273ffffffffffffffffffffffffffffffffffffffff1673ffffffffffffffffffffffffffffffffffffffff16815260200191505060405180910390f35b3480156104a257600080fd5b506104d7600480360381019080803573ffffffffffffffffffffffffffffffffffffffff1690602001909291905050506112f2565b005b3480156104e557600080fd5b5061050460048036038101908080359060200190929190505050611390565b6040518082815260200191505060405180910390f35b34801561052657600080fd5b50610578600480360381019080803590602001909291908060600190919291929080356000191690602001909291908035600019169060200190929190803560ff1690602001909291905050506113ad565b005b34801561058657600080fd5b506105a6600480360381019080806106000190919291929050505061184e565b6040518083601060200280838360005b838110156105d15780820151818401526020810190506105b6565b5050505090500182601060200280838360005b838110156105ff5780820151818401526020810190506105e4565b505050509050019250505060405180910390f35b61061b611cb4565b005b34801561062957600080fd5b5061066860048036038101908080359060200190929190803573ffffffffffffffffffffffffffffffffffffffff169060200190929190505050611df0565b6040518082815260200191505060405180910390f35b34801561068a57600080fd5b506106bf600480360381019080803573ffffffffffffffffffffffffffffffffffffffff169060200190929190505050611e4e565b6040518082815260200191505060405180910390f35b6000809054906101000a900473ffffffffffffffffffffffffffffffffffffffff1673ffffffffffffffffffffffffffffffffffffffff163373ffffffffffffffffffffffffffffffffffffffff1614151561073057600080fd5b6000600160008373ffffffffffffffffffffffffffffffffffffffff1673ffffffffffffffffffffffffffffffffffffffff16815260200190815260200160002060006101000a81548160ff02191690831515021790555050565b6000600160008373ffffffffffffffffffffffffffffffffffffffff1673ffffffffffffffffffffffffffffffffffffffff16815260200190815260200160002060009054906101000a900460ff169050919050565b6000806000600260003373ffffffffffffffffffffffffffffffffffffffff1673ffffffffffffffffffffffffffffffffffffffff1681526020019081526020016000205492506108328385611e97565b9150600082111561096757818303905080600260003373ffffffffffffffffffffffffffffffffffffffff1673ffffffffffffffffffffffffffffffffffffffff168152602001908152602001600020819055503373ffffffffffffffffffffffffffffffffffffffff167faf66eb1ff59a99165e990351acac53ab2fbc78bf79381392dd75b57ed2b8c40c60405160405180910390a23373ffffffffffffffffffffffffffffffffffffffff167fd0a6f018d0e9629a13bfeb9c60fd1bd8422531c157615dd2b75f0416f9255d988483604051808381526020018281526020019250505060405180910390a23373ffffffffffffffffffffffffffffffffffffffff166108fc839081150290604051600060405180830381858888f19350505050158015610965573d6000803e3d6000fd5b505b50505050565b610975612bc4565b61097d612be8565b610985612c0c565b600080600091505b6010821015610aa357600086836010811015156109a657fe5b602002013514156109b657610aa3565b6003600087846010811015156109c857fe5b6020020135815260200190815260200160002090508060000160008873ffffffffffffffffffffffffffffffffffffffff1673ffffffffffffffffffffffffffffffffffffffff168152602001908152602001600020548583601081101515610a2d57fe5b6020020181815250508060010160089054906101000a900460ff168483601081101515610a5657fe5b6020020190151590811515815250508060010160099054906101000a900460ff168383601081101515610a8557fe5b602002019060ff16908160ff1681525050818060010192505061098d565b50509250925092565b60008060006003600085815260200190815260200160002092508260010160089054906101000a900460ff1680610b05575060008360010160009054906101000a900467ffffffffffffffff1667ffffffffffffffff16145b15610b0f57610be5565b62015180600760ff861602028360010160009054906101000a900467ffffffffffffffff1667ffffffffffffffff1601915081421115610be457600861ff0085169060020a9004905060648160ff1611151515610b6b57600080fd5b60018360010160086101000a81548160ff021916908315150217905550808360010160096101000a81548160ff021916908360ff160217905550837f7f2609eb806286dc6666e93a10aa26fd1ed386ef551226eab624fa2989e18f1d82604051808260ff1660ff16815260200191505060405180910390a25b5b50505050565b6000806000806003600086815260200190815260200160002090508060010160009054906101000a900467ffffffffffffffff168160010160089054906101000a900460ff168260010160099054906101000a900460ff16935093509350509193909250565b6000806000806000600360008b815260200190815260200160002094508460010160089054906101000a900460ff1615610caf578860ff168560010160099054906101000a900460ff1660ff16141515610caa57600080fd5b610fba565b308a8a604051602001808473ffffffffffffffffffffffffffffffffffffffff1673ffffffffffffffffffffffffffffffffffffffff166c010000000000000000000000000281526014018381526020018260ff1660ff167f010000000000000000000000000000000000000000000000000000000000000002815260010193505050506040516020818303038152906040526040518082805190602001908083835b602083101515610d775780518252602082019150602081019050602083039250610d52565b6001836020036101000a038019825116818451168082178552505050505050905001915050604051809103902060019004935060018460405160200180807f19457468657265756d205369676e6564204d6573736167653a0a333200000000815250601c018281526020019150506040516020818303038152906040526040518082805190602001908083835b602083101515610e295780518252602082019150602081019050602083039250610e04565b6001836020036101000a0380198251168184511680821785525050505050509050019150506040518091039020878a8a604051600081526020016040526040518085600019166000191681526020018460ff1660ff1681526020018360001916600019168152602001826000191660001916815260200194505050505060206040516020810390808403906000865af1158015610eca573d6000803e3d6000fd5b505050602060405103519250600160008473ffffffffffffffffffffffffffffffffffffffff1673ffffffffffffffffffffffffffffffffffffffff16815260200190815260200160002060009054906101000a900460ff161515610f2e57600080fd5b60648960ff1611151515610f4157600080fd5b60018560010160086101000a81548160ff021916908315150217905550888560010160096101000a81548160ff021916908360ff160217905550897f7f2609eb806286dc6666e93a10aa26fd1ed386ef551226eab624fa2989e18f1d8a604051808260ff1660ff16815260200191505060405180910390a25b600091508460000160003373ffffffffffffffffffffffffffffffffffffffff1673ffffffffffffffffffffffffffffffffffffffff168152602001908152602001600020549050600081131561101c57611015818a611eb0565b9150611042565b600081121561103c57611035816000038a606403611eb0565b9150611041565b6110f0565b5b6000821215151561104f57fe5b60008560000160003373ffffffffffffffffffffffffffffffffffffffff1673ffffffffffffffffffffffffffffffffffffffff168152602001908152602001600020819055506110a03383611edf565b893373ffffffffffffffffffffffffffffffffffffffff167f9a4772cd5c0946aaea956f025c3bd64f5b4464abfaa006dbfc1ffe104b89ef2f846040518082815260200191505060405180910390a35b50505050505050505050565b6000809054906101000a900473ffffffffffffffffffffffffffffffffffffffff1673ffffffffffffffffffffffffffffffffffffffff163373ffffffffffffffffffffffffffffffffffffffff1614151561115757600080fd5b60018060008373ffffffffffffffffffffffffffffffffffffffff1673ffffffffffffffffffffffffffffffffffffffff16815260200190815260200160002060006101000a81548160ff02191690831515021790555050565b6111b9612c30565b6111e78560038060200260405190810160405280929190826003602002808284378201915050505050611fec565b90506111f5818585856121e0565b151561120057600080fd5b3373ffffffffffffffffffffffffffffffffffffffff16816080015173ffffffffffffffffffffffffffffffffffffffff1614151561123e57600080fd5b80606001514210156112c257806040015160046000836000015181526020019081526020016000208190555080602001513373ffffffffffffffffffffffffffffffffffffffff167f30935e4be65589802d673b5be2728667a369b55b560f059108e2121907c6d6f983600001516040518082815260200191505060405180910390a35b5050505050565b60008060009054906101000a900473ffffffffffffffffffffffffffffffffffffffff16905090565b6000809054906101000a900473ffffffffffffffffffffffffffffffffffffffff1673ffffffffffffffffffffffffffffffffffffffff163373ffffffffffffffffffffffffffffffffffffffff1614151561134d57600080fd5b806000806101000a81548173ffffffffffffffffffffffffffffffffffffffff021916908373ffffffffffffffffffffffffffffffffffffffff16021790555050565b600060046000838152602001908152602001600020549050919050565b6113b5612c30565b6113bd612c8a565b60006113ed8760038060200260405190810160405280929190826003602002808284378201915050505050611fec565b92506113f88361235e565b1515611491578260200151836080015173ffffffffffffffffffffffffffffffffffffffff163373ffffffffffffffffffffffffffffffffffffffff167fff786f2db0e226ba2ad212d9b57fa5c209c8c5cb0692bf0486e30b8b2e17fe9586600001516003600781111561146857fe5b604051808381526020018261ffff1661ffff1681526020019250505060405180910390a4611844565b61149d838787876121e0565b1515611536578260200151836080015173ffffffffffffffffffffffffffffffffffffffff163373ffffffffffffffffffffffffffffffffffffffff167fff786f2db0e226ba2ad212d9b57fa5c209c8c5cb0692bf0486e30b8b2e17fe9586600001516004600781111561150d57fe5b604051808381526020018261ffff1661ffff1681526020019250505060405180910390a4611844565b61154088846123d4565b91506000600781111561154f57fe5b8260000151600781111561155f57fe5b1415156115fc578260200151836080015173ffffffffffffffffffffffffffffffffffffffff163373ffffffffffffffffffffffffffffffffffffffff167fff786f2db0e226ba2ad212d9b57fa5c209c8c5cb0692bf0486e30b8b2e17fe958660000151866000015160078111156115d357fe5b604051808381526020018261ffff1661ffff1681526020019250505060405180910390a4611844565b6003600084602001518152602001908152602001600020905060008160010160009054906101000a900467ffffffffffffffff1667ffffffffffffffff1614156116785760004211151561164c57fe5b428160010160006101000a81548167ffffffffffffffff021916908367ffffffffffffffff1602179055505b8160600151816000016000846020015173ffffffffffffffffffffffffffffffffffffffff1673ffffffffffffffffffffffffffffffffffffffff168152602001908152602001600020819055508160800151816000016000846040015173ffffffffffffffffffffffffffffffffffffffff1673ffffffffffffffffffffffffffffffffffffffff1681526020019081526020016000208190555061172682602001518360a00151611edf565b61173882604001518360c00151611edf565b60008360c0015160ff161461175257816101000151611758565b8160e001515b6004600085600001518152602001908152602001600020600082825401925050819055508260200151836080015173ffffffffffffffffffffffffffffffffffffffff163373ffffffffffffffffffffffffffffffffffffffff167fd5db3fe23370479a78dc47612ce8be2c8c0ae30d3f255129af35fe3f852b965686600001518760c001518860a0015188610100015189606001518a60e001518b60800151604051808881526020018760ff1660ff1681526020018660ff1660ff16815260200185815260200184815260200183815260200182815260200197505050505050505060405180910390a45b5050505050505050565b611856612d0e565b61185e612d32565b6000611868612d56565b611870612c30565b60008060008095505b6010861015611ca957886003870260308110151561189357fe5b60200201358560006003811015156118a757fe5b60200201818152505088600160038802016030811015156118c457fe5b60200201358560016003811015156118d857fe5b60200201818152505088600260038802016030811015156118f557fe5b602002013585600260038110151561190957fe5b602002018181525050600085600060038110151561192357fe5b6020020151141561193357611ca9565b61193c85611fec565b93506119478461235e565b1515611999576003600781111561195a57fe5b888760108110151561196857fe5b602002019061ffff16908161ffff16815250506000878760108110151561198b57fe5b602002018181525050611c9c565b600360008560200151815260200190815260200160002092508260010160089054906101000a900460ff1615611a1557600160078111156119d657fe5b88876010811015156119e457fe5b602002019061ffff16908161ffff168152505060008787601081101515611a0757fe5b602002018181525050611c9c565b60008460c0015160ff161415611b6257611a4a8460400151600460008760000151815260200190815260200160002054612a12565b9050611a57816064612a2b565b9150611afb81611af660026000886080015173ffffffffffffffffffffffffffffffffffffffff1673ffffffffffffffffffffffffffffffffffffffff16815260200190815260200160002054866000016000896080015173ffffffffffffffffffffffffffffffffffffffff1673ffffffffffffffffffffffffffffffffffffffff168152602001908152602001600020548860a001516000612a5e565b611e97565b9050611b0f82828660a0015160ff16612ab2565b809250819350505060006007811115611b2457fe5b8887601081101515611b3257fe5b602002019061ffff16908161ffff1681525050808787601081101515611b5457fe5b602002018181525050611c9b565b611b878460400151600460008760000151815260200190815260200160002054612a12565b9150611b94826064612a2b565b9050611c3882611c3360026000886080015173ffffffffffffffffffffffffffffffffffffffff1673ffffffffffffffffffffffffffffffffffffffff16815260200190815260200160002054866000016000896080015173ffffffffffffffffffffffffffffffffffffffff1673ffffffffffffffffffffffffffffffffffffffff168152602001908152602001600020548860a001516001612a5e565b611e97565b9150611c4c82828660a0015160ff16612ab2565b809250819350505060006007811115611c6157fe5b8887601081101515611c6f57fe5b602002019061ffff16908161ffff1681525050818787601081101515611c9157fe5b6020020181815250505b5b8580600101965050611879565b505050505050915091565b6000806000341115611dec57600260003373ffffffffffffffffffffffffffffffffffffffff1673ffffffffffffffffffffffffffffffffffffffff168152602001908152602001600020549150611d0c8234612b18565b905080600260003373ffffffffffffffffffffffffffffffffffffffff1673ffffffffffffffffffffffffffffffffffffffff168152602001908152602001600020819055503373ffffffffffffffffffffffffffffffffffffffff167fd3f6be9fd42ca63d7d8f466cf84e429063ac713c319d5fd9edfa0232fc5f684d60405160405180910390a23373ffffffffffffffffffffffffffffffffffffffff167fd0a6f018d0e9629a13bfeb9c60fd1bd8422531c157615dd2b75f0416f9255d988383604051808381526020018281526020019250505060405180910390a25b5050565b60006003600084815260200190815260200160002060000160008373ffffffffffffffffffffffffffffffffffffffff1673ffffffffffffffffffffffffffffffffffffffff16815260200190815260200160002054905092915050565b6000600260008373ffffffffffffffffffffffffffffffffffffffff1673ffffffffffffffffffffffffffffffffffffffff168152602001908152602001600020549050919050565b6000818310611ea65781611ea8565b825b905092915050565b6000808312151515611ebe57fe5b6064611ecd848460ff16612a2b565b811515611ed657fe5b04905092915050565b600080600260008573ffffffffffffffffffffffffffffffffffffffff1673ffffffffffffffffffffffffffffffffffffffff1681526020019081526020016000205491506000831215611f3f57611f3a8284600003612a12565b611f4a565b611f498284612b18565b5b905080600260008673ffffffffffffffffffffffffffffffffffffffff1673ffffffffffffffffffffffffffffffffffffffff168152602001908152602001600020819055508373ffffffffffffffffffffffffffffffffffffffff167fd0a6f018d0e9629a13bfeb9c60fd1bd8422531c157615dd2b75f0416f9255d988383604051808381526020018281526020019250505060405180910390a250505050565b611ff4612c30565b60003083604051602001808373ffffffffffffffffffffffffffffffffffffffff1673ffffffffffffffffffffffffffffffffffffffff166c0100000000000000000000000002815260140182600360200280838360005b8381101561206757808201518184015260208101905061204c565b50505050905001925050506040516020818303038152906040526040518082805190602001908083835b6020831015156120b65780518252602082019150602081019050602083039250612091565b6001836020036101000a0380198251168184511680821785525050505050509050019150506040518091039020600190048260000181815250508260006003811015156120ff57fe5b602002015182602001818152505082600160038110151561211c57fe5b602002015182604001818152505082600260038110151561213957fe5b6020020151905060d8819060020a900482606001818152505073ffffffffffffffffffffffffffffffffffffffff8116826080019073ffffffffffffffffffffffffffffffffffffffff16908173ffffffffffffffffffffffffffffffffffffffff168152505060ff60a8829060020a9004168260a0019060ff16908160ff168152505060ff60a0829060020a9004168260c0019060ff16908160ff168152505050919050565b6000846080015173ffffffffffffffffffffffffffffffffffffffff166001866000015160405160200180807f19457468657265756d205369676e6564204d6573736167653a0a333200000000815250601c018281526020019150506040516020818303038152906040526040518082805190602001908083835b602083101515612280578051825260208201915060208101905060208303925061225b565b6001836020036101000a0380198251168184511680821785525050505050509050019150506040518091039020848787604051600081526020016040526040518085600019166000191681526020018460ff1660ff1681526020018360001916600019168152602001826000191660001916815260200194505050505060206040516020810390808403906000865af1158015612321573d6000803e3d6000fd5b5050506020604051035173ffffffffffffffffffffffffffffffffffffffff161415156123515760009050612356565b600190505b949350505050565b60007001000000000000000000000000000000008260400151111561238657600090506123cf565b60008260a0015160ff1614806123a3575060638260a0015160ff16115b156123b157600090506123cf565b60018260c0015160ff1611156123ca57600090506123cf565b600190505b919050565b6123dc612c8a565b600080600080600080600080600360008b60200151815260200190815260200160002097508960600151421015156124365760028960000190600781111561242057fe5b9081600781111561242d57fe5b81525050612a04565b8760010160089054906101000a900460ff16156124755760018960000190600781111561245f57fe5b9081600781111561246c57fe5b81525050612a04565b896080015173ffffffffffffffffffffffffffffffffffffffff163373ffffffffffffffffffffffffffffffffffffffff1614156124d5576006896000019060078111156124bf57fe5b908160078111156124cc57fe5b81525050612a04565b7001000000000000000000000000000000008b11156125165760058960000190600781111561250057fe5b9081600781111561250d57fe5b81525050612a04565b60008960000190600781111561252857fe5b9081600781111561253557fe5b8152505060008a60c0015160ff1614156125ec5733896020019073ffffffffffffffffffffffffffffffffffffffff16908173ffffffffffffffffffffffffffffffffffffffff16815250508a96508960800151896040019073ffffffffffffffffffffffffffffffffffffffff16908173ffffffffffffffffffffffffffffffffffffffff16815250506125e58a60400151600460008d60000151815260200190815260200160002054612a12565b955061268b565b8960800151896020019073ffffffffffffffffffffffffffffffffffffffff16908173ffffffffffffffffffffffffffffffffffffffff168152505061264d8a60400151600460008d60000151815260200190815260200160002054612a12565b965033896040019073ffffffffffffffffffffffffffffffffffffffff16908173ffffffffffffffffffffffffffffffffffffffff16815250508a95505b8760000160008a6020015173ffffffffffffffffffffffffffffffffffffffff1673ffffffffffffffffffffffffffffffffffffffff1681526020019081526020016000205494508760000160008a6040015173ffffffffffffffffffffffffffffffffffffffff1673ffffffffffffffffffffffffffffffffffffffff16815260200190815260200160002054935061277887612773600260008d6020015173ffffffffffffffffffffffffffffffffffffffff1673ffffffffffffffffffffffffffffffffffffffff16815260200190815260200160002054888e60a001516001612a5e565b611e97565b96506127d7866127d2600260008d6040015173ffffffffffffffffffffffffffffffffffffffff1673ffffffffffffffffffffffffffffffffffffffff16815260200190815260200160002054878e60a001516000612a5e565b611e97565b95506127eb87878c60a0015160ff16612ab2565b809750819850505060008714806128025750600086145b1561282f5760078960000190600781111561281957fe5b9081600781111561282657fe5b81525050612a04565b858701850192508587018403915060008960a001818152505060008960c0018181525050600085121561288c5761287c61286a600085612b42565b86600003018b60a00151606403611eb0565b8960a00181815101915081815250505b60008313156128bf576128af6128a3600087612b5b565b84038b60a00151611eb0565b8960a00181815103915081815250505b60008413156128f2576128e26128d6600084612b5b565b85038b60a00151611eb0565b8960c00181815101915081815250505b600082121561292b5761291b612909600086612b42565b83600003018b60a00151606403611eb0565b8960c00181815103915081815250505b6129418960a001518a60c0015187868887612b75565b90506000811415156129da57600181141561296c5782806001900393505081806001019250506129b5565b7fffffffffffffffffffffffffffffffffffffffffffffffffffffffffffffffff8114156129a9578860a0018051809190600101815250506129b4565b600015156129b357fe5b5b5b6129cb8960a001518a60c0015187868887612b75565b90506000811415156129d957fe5b5b8289606001818152505081896080018181525050858960e001818152505086896101000181815250505b505050505050505092915050565b6000828211151515612a2057fe5b818303905092915050565b60008082840290506000841480612a4c5750828482811515612a4957fe5b04145b1515612a5457fe5b8091505092915050565b6000808590508215612a8a576000851215612a8557612a808560000385611eb0565b810190505b612aa6565b6000851315612aa557612aa08585606403611eb0565b810190505b5b80915050949350505050565b60008060008084612ac68887606403612a2b565b811515612acf57fe5b048701915084606403612ae28787612a2b565b811515612aeb57fe5b048601905080821115612b05578581038693509350612b0e565b86878303935093505b5050935093915050565b6000808284019050838110158015612b305750828110155b1515612b3857fe5b8091505092915050565b6000818312612b515781612b53565b825b905092915050565b600081831215612b6b5781612b6d565b825b905092915050565b600080600090506000851315612b9757612b90600087612b5b565b8503810190505b6000841315612bb257612bab600084612b5b565b8403810390505b86888201019150509695505050505050565b61020060405190810160405280601090602082028038833980820191505090505090565b61020060405190810160405280601090602082028038833980820191505090505090565b61020060405190810160405280601090602082028038833980820191505090505090565b60e06040519081016040528060008152602001600081526020016000815260200160008152602001600073ffffffffffffffffffffffffffffffffffffffff168152602001600060ff168152602001600060ff1681525090565b6101206040519081016040528060006007811115612ca457fe5b8152602001600073ffffffffffffffffffffffffffffffffffffffff168152602001600073ffffffffffffffffffffffffffffffffffffffff1681526020016000815260200160008152602001600081526020016000815260200160008152602001600081525090565b61020060405190810160405280601090602082028038833980820191505090505090565b61020060405190810160405280601090602082028038833980820191505090505090565b6060604051908101604052806003906020820280388339808201915050905050905600a165627a7a723058202b360a6d5473f234be591237466264f13c21acb484d8983c400e87891f50fa440029",
  "source": "pragma solidity ^0.4.18;\n\ncontract SportCrypt {\n    address private owner;\n    mapping(address => bool) private admins;\n\n    constructor() public {\n        owner = msg.sender;\n    }\n\n    modifier onlyOwner() {\n        require(msg.sender == owner);\n        _;\n    }\n\n    function changeOwner(address newOwner) external onlyOwner {\n        owner = newOwner;\n    }\n\n    function addAdmin(address addr) external onlyOwner {\n        admins[addr] = true;\n    }\n\n    function removeAdmin(address addr) external onlyOwner {\n        admins[addr] = false;\n    }\n\n\n    // Events\n\n    event LogBalanceChange(address indexed account, uint oldAmount, uint newAmount);\n    event LogDeposit(address indexed account);\n    event LogWithdraw(address indexed account);\n    event LogTrade(address indexed takerAccount, address indexed makerAccount, uint indexed matchId, uint orderHash, uint8 orderDirection, uint8 price, uint longAmount, int newLongPosition, uint shortAmount, int newShortPosition);\n    event LogTradeError(address indexed takerAccount, address indexed makerAccount, uint indexed matchId, uint orderHash, uint16 status);\n    event LogOrderCancel(address indexed account, uint indexed matchId, uint orderHash);\n    event LogFinalizeMatch(uint indexed matchId, uint8 finalPrice);\n    event LogClaim(address indexed account, uint indexed matchId, uint amount);\n\n\n    // Storage\n\n    struct Match {\n        mapping(address => int) positions;\n        uint64 firstTradeTimestamp;\n        bool finalized;\n        uint8 finalPrice;\n    }\n\n    mapping(address => uint) private balances;\n    mapping(uint => Match) private matches;\n    mapping(uint => uint) private filledAmounts;\n\n\n    // Memory\n\n    uint constant MAX_SANE_AMOUNT = 2**128;\n\n    enum Status {\n        OK,//Trade was created successfully.\n        MATCH_FINALIZED,//Cannot trade after a match has been finalized.\n        ORDER_EXPIRED,//The block this transaction was mined in has a block.timestamp greater than the order's expiry.\n        ORDER_MALFORMED,//The order was constructed incorrectly.\n        ORDER_BAD_SIG,//The order's signature does not match the signature of the order creator.\n        AMOUNT_MALFORMED,//An amount greater than MAX_SANE_AMOUNT was provided.\n        SELF_TRADE,//The sender and the order creator are the same account.\n        ZERO_VALUE_TRADE //The trade amount was so small that, possibly due to rounding, one of the amounts at risk was zero.\n    }\n\n    struct Order {\n        uint orderHash;\n        uint matchId;\n        uint amount;\n        uint expiry;\n        address addr;\n        uint8 price;\n        uint8 direction;\n    }\n\n    // [0]: match hash\n    // [1]: amount\n    // [2]: 5-byte expiry, 5-byte nonce, 1-byte price, 1-byte direction, 20-byte address\n\n    function parseOrder(uint[3] memory rawOrder) private constant returns(Order memory o) {\n        o.orderHash = uint(keccak256(abi.encodePacked(this, rawOrder)));\n\n        o.matchId = rawOrder[0];\n        o.amount = rawOrder[1];\n\n        uint packed = rawOrder[2];\n        o.expiry = packed >> (8*27);\n        o.addr = address(packed & 0x00ffffffffffffffffffffffffffffffffffffffff);\n        o.price = uint8((packed >> (8*21)) & 0xff);\n        o.direction = uint8((packed >> (8*20)) & 0xff);\n    }\n\n    function validateOrderParams(Order memory o) private pure returns(bool) {\n        if (o.amount > MAX_SANE_AMOUNT) return false;\n        if (o.price == 0 || o.price > 99) return false;\n        if (o.direction > 1) return false;\n        return true;\n    }\n\n    function validateOrderSig(Order memory o, bytes32 r, bytes32 s, uint8 v) private pure returns(bool) {\n        if (ecrecover(keccak256(abi.encodePacked(\"\\x19Ethereum Signed Message:\\n32\", o.orderHash)), v, r, s) != o.addr) return false;\n        return true;\n    }\n\n    struct Trade {\n        Status status;\n        address longAddr;\n        address shortAddr;\n        int newLongPosition;\n        int newShortPosition;\n        int longBalanceDelta;\n        int shortBalanceDelta;\n        uint shortAmount;\n        uint longAmount;\n    }\n\n\n    // User methods\n\n    function() external payable {\n        revert();\n    }\n    /**\n    Adds funds to the sender's balance inside the smart contract. \n    This is the only payable method (and that is verified by t/interface.js).\n    */\n    function deposit() external payable {\n        if (msg.value > 0) {\n            uint origAmount = balances[msg.sender];\n            uint newAmount = safeAdd(origAmount, msg.value);\n            balances[msg.sender] = newAmount;\n\n            emit LogDeposit(msg.sender);\n            emit LogBalanceChange(msg.sender, origAmount, newAmount);\n        }\n    }\n    /**\n     Deducts the sender's smart contract balance and sends it to their address with transfer. \n     This method attempts to withdraw the maximum up to the specified amount. \n     If the balance is less than this amount, the entire balance will be withdrawn.\n    */\n    function withdraw(uint amount) external {\n        uint origAmount = balances[msg.sender];\n        uint amountToWithdraw = minu256(origAmount, amount);\n\n        if (amountToWithdraw > 0) {\n            uint newAmount = origAmount - amountToWithdraw;\n            balances[msg.sender] = newAmount;\n\n            emit LogWithdraw(msg.sender);\n            emit LogBalanceChange(msg.sender, origAmount, newAmount);\n\n            msg.sender.transfer(amountToWithdraw);\n        }\n    }\n    /**\n    Given a signed order, sets the filledAmounts value for this order to the order amount, ensuring that this order can no longer be traded on. \n    The order must be signed by the sender. \n    If the order is already expired, saves gas by not writing to filledAmounts.\n    */\n    function cancelOrder(uint[3] order, bytes32 r, bytes32 s, uint8 v) external {\n        Order memory o = parseOrder(order);\n\n        // Don't bother validating order params.\n        require(validateOrderSig(o, r, s, v));\n        require(o.addr == msg.sender);\n\n        if (block.timestamp < o.expiry) {\n            filledAmounts[o.orderHash] = o.amount;\n            emit LogOrderCancel(msg.sender, o.matchId, o.orderHash);\n        }\n    }\n    /**\n    Given a maximum trade amount and a signed order, attempts to create a trade with the amount at risk up to the specified amount. \n    This will debit or credit the balances, and increase or decrease positions on the event specified in the order.\n    See our whitepaper for full details. \n    In the event of an error, a LogTradeError will be logged (see the Trade Status section below).\n    */\n    function trade(uint amount, uint[3] order, bytes32 r, bytes32 s, uint8 v) external {\n        Order memory o = parseOrder(order);\n\n        if (!validateOrderParams(o)) {\n            emit LogTradeError(msg.sender, o.addr, o.matchId, o.orderHash, uint16(Status.ORDER_MALFORMED));\n            return;\n        }\n\n        if (!validateOrderSig(o, r, s, v)) {\n            emit LogTradeError(msg.sender, o.addr, o.matchId, o.orderHash, uint16(Status.ORDER_BAD_SIG));\n            return;\n        }\n\n        Trade memory t = tradeCore(amount, o);\n\n        if (t.status != Status.OK) {\n            emit LogTradeError(msg.sender, o.addr, o.matchId, o.orderHash, uint16(t.status));\n            return;\n        }\n\n        // Modify storage to reflect trade:\n\n        Match m = matches[o.matchId];\n\n        if (m.firstTradeTimestamp == 0) {\n            assert(block.timestamp > 0);\n            m.firstTradeTimestamp = uint64(block.timestamp);\n        }\n\n        m.positions[t.longAddr] = t.newLongPosition;\n        m.positions[t.shortAddr] = t.newShortPosition;\n\n        adjustBalance(t.longAddr, t.longBalanceDelta);\n        adjustBalance(t.shortAddr, t.shortBalanceDelta);\n\n        filledAmounts[o.orderHash] += (o.direction == 0 ? t.shortAmount : t.longAmount);\n\n        emit LogTrade(msg.sender, o.addr, o.matchId, o.orderHash, o.direction, o.price, t.longAmount, t.newLongPosition, t.shortAmount, t.newShortPosition);\n    }\n    /**\n    Given a signed finalization message and a match ID, finalizes the match and claims the sender's winnings for this match by decreasing the sender's position and crediting the sender's balance. \n    This is an irreversible operation. \n    After finalization, the signed finalization message is no longer required for claims.\n    */\n    function claim(uint matchId, uint8 finalPrice, bytes32 r, bytes32 s, uint8 v) external {\n        Match m = matches[matchId];\n\n        if (m.finalized) {\n            require(m.finalPrice == finalPrice);\n        } else {\n            uint messageHash = uint(keccak256(abi.encodePacked(this, matchId, finalPrice)));\n            address signer = ecrecover(keccak256(abi.encodePacked(\"\\x19Ethereum Signed Message:\\n32\", messageHash)), v, r, s);\n            require(admins[signer]);\n            require(finalPrice <= 100);\n\n            m.finalized = true;\n            m.finalPrice = finalPrice;\n            emit LogFinalizeMatch(matchId, finalPrice);\n        }\n\n        // NOTE: final prices other than 0 and 100 may leave very small amounts of unrecoverable dust in the contract due to rounding.\n\n        int delta = 0;\n        int senderPosition = m.positions[msg.sender];\n\n        if (senderPosition > 0) {\n            delta = priceDivide(senderPosition, finalPrice);\n        } else if (senderPosition < 0) {\n            delta = priceDivide(-senderPosition, 100 - finalPrice);\n        } else {\n            return;\n        }\n\n        assert(delta >= 0);\n\n        m.positions[msg.sender] = 0;\n        adjustBalance(msg.sender, delta);\n\n        emit LogClaim(msg.sender, matchId, uint(delta));\n    }\n    /**\n    Given a match ID, if a match has not been finalized and its funds recovery timeout period has elapsed, finalizes the match at its cancellation price.\n    */\n    function recoverFunds(uint matchId) external {\n        Match m = matches[matchId];\n\n        if (m.finalized || m.firstTradeTimestamp == 0) {\n            return;\n        }\n\n        uint recoveryTimestamp = uint(m.firstTradeTimestamp) + ((matchId & 0xFF) * 7 * 86400);\n\n        if (uint(block.timestamp) > recoveryTimestamp) {\n            uint8 finalPrice = uint8((matchId & 0xFF00) >> 8);\n            require(finalPrice <= 100);\n\n            m.finalized = true;\n            m.finalPrice = finalPrice;\n            emit LogFinalizeMatch(matchId, finalPrice);\n        }\n    }\n\n\n    // Private utilities\n\n    function adjustBalance(address addr, int delta) private {\n        uint origAmount = balances[addr];\n        uint newAmount = delta >= 0 ? safeAdd(origAmount, uint(delta)) : safeSub(origAmount, uint(-delta));\n        balances[addr] = newAmount;\n\n        emit LogBalanceChange(addr, origAmount, newAmount);\n    }\n\n    function priceDivide(int amount, uint8 price) private pure returns(int) {\n        assert(amount >= 0);\n        return int(safeMul(uint(amount), price) / 100);\n    }\n\n    function computeEffectiveBalance(uint balance, int position, uint8 price, bool isLong) private pure returns(uint) {\n        uint effectiveBalance = balance;\n\n        if (isLong) {\n            if (position < 0) effectiveBalance += uint(priceDivide(-position, price));\n        } else {\n            if (position > 0) effectiveBalance += uint(priceDivide(position, 100 - price));\n        }\n\n        return effectiveBalance;\n    }\n\n    function computePriceWeightedAmounts(uint longAmount, uint shortAmount, uint price) private pure returns(uint, uint) {\n        uint totalLongAmount;\n        uint totalShortAmount;\n\n        totalLongAmount = longAmount + (safeMul(longAmount, 100 - price) / price);\n        totalShortAmount = shortAmount + (safeMul(shortAmount, price) / (100 - price));\n\n        if (totalLongAmount > totalShortAmount) {\n            return (totalShortAmount - shortAmount, shortAmount);\n        } else {\n            return (longAmount, totalLongAmount - longAmount);\n        }\n    }\n\n    function computeExposureDelta(int longBalanceDelta, int shortBalanceDelta, int oldLongPosition, int newLongPosition, int oldShortPosition, int newShortPosition) private pure returns(int) {\n        int positionDelta = 0;\n        if (newLongPosition > 0) positionDelta += newLongPosition - max256(0, oldLongPosition);\n        if (oldShortPosition > 0) positionDelta -= oldShortPosition - max256(0, newShortPosition);\n\n        return positionDelta + longBalanceDelta + shortBalanceDelta;\n    }\n\n    function tradeCore(uint amount, Order memory o) private constant returns(Trade t) {\n        Match m = matches[o.matchId];\n\n        if (block.timestamp >= o.expiry) {\n            t.status = Status.ORDER_EXPIRED;\n            return;\n        }\n\n        if (m.finalized) {\n            t.status = Status.MATCH_FINALIZED;\n            return;\n        }\n\n        if (msg.sender == o.addr) {\n            t.status = Status.SELF_TRADE;\n            return;\n        }\n\n        if (amount > MAX_SANE_AMOUNT) {\n            t.status = Status.AMOUNT_MALFORMED;\n            return;\n        }\n\n        t.status = Status.OK;\n\n\n        uint longAmount;\n        uint shortAmount;\n\n        if (o.direction == 0) {\n            // maker short, taker long\n            t.longAddr = msg.sender;\n            longAmount = amount;\n\n            t.shortAddr = o.addr;\n            shortAmount = safeSub(o.amount, filledAmounts[o.orderHash]);\n        } else {\n            // maker long, taker short \n            t.longAddr = o.addr;\n            longAmount = safeSub(o.amount, filledAmounts[o.orderHash]);\n\n            t.shortAddr = msg.sender;\n            shortAmount = amount;\n        }\n\n        int oldLongPosition = m.positions[t.longAddr];\n        int oldShortPosition = m.positions[t.shortAddr];\n\n        longAmount = minu256(longAmount, computeEffectiveBalance(balances[t.longAddr], oldLongPosition, o.price, true));\n        shortAmount = minu256(shortAmount, computeEffectiveBalance(balances[t.shortAddr], oldShortPosition, o.price, false));\n\n        (longAmount, shortAmount) = computePriceWeightedAmounts(longAmount, shortAmount, o.price);\n\n        if (longAmount == 0 || shortAmount == 0) {\n            t.status = Status.ZERO_VALUE_TRADE;\n            return;\n        }\n\n\n        int newLongPosition = oldLongPosition + (int(longAmount) + int(shortAmount));\n        int newShortPosition = oldShortPosition - (int(longAmount) + int(shortAmount));\n\n\n        t.longBalanceDelta = 0;\n        t.shortBalanceDelta = 0;\n\n        if (oldLongPosition < 0) t.longBalanceDelta += priceDivide(-oldLongPosition + min256(0, newLongPosition), 100 - o.price);\n        if (newLongPosition > 0) t.longBalanceDelta -= priceDivide(newLongPosition - max256(0, oldLongPosition), o.price);\n\n        if (oldShortPosition > 0) t.shortBalanceDelta += priceDivide(oldShortPosition - max256(0, newShortPosition), o.price);\n        if (newShortPosition < 0) t.shortBalanceDelta -= priceDivide(-newShortPosition + min256(0, oldShortPosition), 100 - o.price);\n\n        int exposureDelta = computeExposureDelta(t.longBalanceDelta, t.shortBalanceDelta, oldLongPosition, newLongPosition, oldShortPosition, newShortPosition);\n\n        if (exposureDelta != 0) {\n            if (exposureDelta == 1) {\n                newLongPosition--;\n                newShortPosition++;\n            } else if (exposureDelta == -1) {\n                t.longBalanceDelta++; // one left-over wei: arbitrarily give it to long\n            } else {\n                assert(false);\n            }\n\n            exposureDelta = computeExposureDelta(t.longBalanceDelta, t.shortBalanceDelta, oldLongPosition, newLongPosition, oldShortPosition, newShortPosition);\n            assert(exposureDelta == 0);\n        }\n\n\n        t.newLongPosition = newLongPosition;\n        t.newShortPosition = newShortPosition;\n        t.shortAmount = shortAmount;\n        t.longAmount = longAmount;\n    }\n\n\n    // External views\n\n    function getOwner() external view returns(address) {\n        return owner;\n    }\n\n    function isAdmin(address addr) external view returns(bool) {\n        return admins[addr];\n    }\n\n    function getBalance(address addr) external view returns(uint) {\n        return balances[addr];\n    }\n\n    function getMatchInfo(uint matchId) external view returns(uint64, bool, uint8) {\n        Match m = matches[matchId];\n        return (m.firstTradeTimestamp, m.finalized, m.finalPrice);\n    }\n\n    function getPosition(uint matchId, address addr) external view returns(int) {\n        return matches[matchId].positions[addr];\n    }\n\n    function getFilledAmount(uint orderHash) external view returns(uint) {\n        return filledAmounts[orderHash];\n    }\n\n    function checkMatchBatch(address myAddr, uint[16] matchIds) external view returns(int[16] myPosition, bool[16] finalized, uint8[16] finalPrice) {\n        for (uint i = 0; i < 16; i++) {\n            if (matchIds[i] == 0) break;\n\n            Match m = matches[matchIds[i]];\n\n            myPosition[i] = m.positions[myAddr];\n            finalized[i] = m.finalized;\n            finalPrice[i] = m.finalPrice;\n        }\n    }\n\n    function checkOrderBatch(uint[48] input) external view returns(uint16[16] status, uint[16] amount) {\n        for (uint i = 0; i < 16; i++) {\n            uint[3] memory rawOrder;\n            rawOrder[0] = input[(i*3)];\n            rawOrder[1] = input[(i*3) + 1];\n            rawOrder[2] = input[(i*3) + 2];\n\n            if (rawOrder[0] == 0) break;\n\n            Order memory o = parseOrder(rawOrder);\n\n            if (!validateOrderParams(o)) {\n                status[i] = uint16(Status.ORDER_MALFORMED);\n                amount[i] = 0;\n                continue;\n            }\n\n            // Not validating order signatures or timestamps: should be done by clients\n\n            Match m = matches[o.matchId];\n\n            if (m.finalized) {\n                status[i] = uint16(Status.MATCH_FINALIZED);\n                amount[i] = 0;\n                continue;\n            }\n\n            uint longAmount;\n            uint shortAmount;\n\n            if (o.direction == 0) {\n                shortAmount = safeSub(o.amount, filledAmounts[o.orderHash]);\n                longAmount = safeMul(shortAmount, 100);\n                shortAmount = minu256(shortAmount, computeEffectiveBalance(balances[o.addr], m.positions[o.addr], o.price, false));\n                (longAmount, shortAmount) = computePriceWeightedAmounts(longAmount, shortAmount, o.price);\n                status[i] = uint16(Status.OK);\n                amount[i] = shortAmount;\n            } else {\n                longAmount = safeSub(o.amount, filledAmounts[o.orderHash]);\n                shortAmount = safeMul(longAmount, 100);\n                longAmount = minu256(longAmount, computeEffectiveBalance(balances[o.addr], m.positions[o.addr], o.price, true));\n                (longAmount, shortAmount) = computePriceWeightedAmounts(longAmount, shortAmount, o.price);\n                status[i] = uint16(Status.OK);\n                amount[i] = longAmount;\n            }\n        }\n    }\n\n\n    // Math utilities\n\n    function safeMul(uint a, uint b) private pure returns(uint) {\n        uint c = a * b;\n        assert(a == 0 || c / a == b);\n        return c;\n    }\n\n    function safeSub(uint a, uint b) private pure returns(uint) {\n        assert(b <= a);\n        return a - b;\n    }\n\n    function safeAdd(uint a, uint b) private pure returns(uint) {\n        uint c = a + b;\n        assert(c >= a && c >= b);\n        return c;\n    }\n\n    function minu256(uint a, uint b) private pure returns(uint) {\n        return a < b ? a : b;\n    }\n\n    function max256(int a, int b) private pure returns(int) {\n        return a >= b ? a : b;\n    }\n\n    function min256(int a, int b) private pure returns(int) {\n        return a < b ? a : b;\n    }\n}\n",
  "sourcePath": "/Users/jiangsong/Documents/learn/dapp/truffle-dapp/contracts/SportCrypt.sol",
  "compiler": {
    "name": "solc",
    "version": "0.4.24+commit.e67f0147.Emscripten.clang"
  },
  "schemaVersion": "2.0.1",
  "updatedAt": "2018-07-03T11:37:14.655Z"
}