{
  "contractName": "Dice2Win",
  "abi": [
    {
      "constant": true,
      "inputs": [],
      "name": "secretSigner",
      "outputs": [
        {
          "name": "",
          "type": "address"
        }
      ],
      "payable": false,
      "stateMutability": "view",
      "type": "function"
    },
    {
      "constant": true,
      "inputs": [],
      "name": "jackpotSize",
      "outputs": [
        {
          "name": "",
          "type": "uint128"
        }
      ],
      "payable": false,
      "stateMutability": "view",
      "type": "function"
    },
    {
      "constant": true,
      "inputs": [],
      "name": "owner",
      "outputs": [
        {
          "name": "",
          "type": "address"
        }
      ],
      "payable": false,
      "stateMutability": "view",
      "type": "function"
    },
    {
      "constant": true,
      "inputs": [],
      "name": "maxProfit",
      "outputs": [
        {
          "name": "",
          "type": "uint256"
        }
      ],
      "payable": false,
      "stateMutability": "view",
      "type": "function"
    },
    {
      "constant": true,
      "inputs": [],
      "name": "lockedInBets",
      "outputs": [
        {
          "name": "",
          "type": "uint128"
        }
      ],
      "payable": false,
      "stateMutability": "view",
      "type": "function"
    },
    {
      "inputs": [],
      "payable": false,
      "stateMutability": "nonpayable",
      "type": "constructor"
    },
    {
      "payable": true,
      "stateMutability": "payable",
      "type": "fallback"
    },
    {
      "anonymous": false,
      "inputs": [
        {
          "indexed": true,
          "name": "beneficiary",
          "type": "address"
        },
        {
          "indexed": false,
          "name": "amount",
          "type": "uint256"
        }
      ],
      "name": "FailedPayment",
      "type": "event"
    },
    {
      "anonymous": false,
      "inputs": [
        {
          "indexed": true,
          "name": "beneficiary",
          "type": "address"
        },
        {
          "indexed": false,
          "name": "amount",
          "type": "uint256"
        }
      ],
      "name": "Payment",
      "type": "event"
    },
    {
      "anonymous": false,
      "inputs": [
        {
          "indexed": true,
          "name": "beneficiary",
          "type": "address"
        },
        {
          "indexed": false,
          "name": "amount",
          "type": "uint256"
        }
      ],
      "name": "JackpotPayment",
      "type": "event"
    },
    {
      "constant": false,
      "inputs": [
        {
          "name": "_nextOwner",
          "type": "address"
        }
      ],
      "name": "approveNextOwner",
      "outputs": [],
      "payable": false,
      "stateMutability": "nonpayable",
      "type": "function"
    },
    {
      "constant": false,
      "inputs": [],
      "name": "acceptNextOwner",
      "outputs": [],
      "payable": false,
      "stateMutability": "nonpayable",
      "type": "function"
    },
    {
      "constant": false,
      "inputs": [
        {
          "name": "newSecretSigner",
          "type": "address"
        }
      ],
      "name": "setSecretSigner",
      "outputs": [],
      "payable": false,
      "stateMutability": "nonpayable",
      "type": "function"
    },
    {
      "constant": false,
      "inputs": [
        {
          "name": "_maxProfit",
          "type": "uint256"
        }
      ],
      "name": "setMaxProfit",
      "outputs": [],
      "payable": false,
      "stateMutability": "nonpayable",
      "type": "function"
    },
    {
      "constant": false,
      "inputs": [
        {
          "name": "increaseAmount",
          "type": "uint256"
        }
      ],
      "name": "increaseJackpot",
      "outputs": [],
      "payable": false,
      "stateMutability": "nonpayable",
      "type": "function"
    },
    {
      "constant": false,
      "inputs": [
        {
          "name": "beneficiary",
          "type": "address"
        },
        {
          "name": "withdrawAmount",
          "type": "uint256"
        }
      ],
      "name": "withdrawFunds",
      "outputs": [],
      "payable": false,
      "stateMutability": "nonpayable",
      "type": "function"
    },
    {
      "constant": false,
      "inputs": [],
      "name": "kill",
      "outputs": [],
      "payable": false,
      "stateMutability": "nonpayable",
      "type": "function"
    },
    {
      "constant": true,
      "inputs": [],
      "name": "getNowBlockNumber",
      "outputs": [
        {
          "name": "nowBlockNumber",
          "type": "uint256"
        }
      ],
      "payable": false,
      "stateMutability": "view",
      "type": "function"
    },
    {
      "constant": false,
      "inputs": [
        {
          "name": "betMask",
          "type": "uint256"
        },
        {
          "name": "modulo",
          "type": "uint256"
        },
        {
          "name": "commitLastBlock",
          "type": "uint256"
        },
        {
          "name": "commit",
          "type": "uint256"
        },
        {
          "name": "r",
          "type": "bytes32"
        },
        {
          "name": "s",
          "type": "bytes32"
        }
      ],
      "name": "placeBet",
      "outputs": [],
      "payable": true,
      "stateMutability": "payable",
      "type": "function"
    },
    {
      "constant": false,
      "inputs": [
        {
          "name": "reveal",
          "type": "uint256"
        },
        {
          "name": "cleanCommit",
          "type": "uint256"
        }
      ],
      "name": "settleBet",
      "outputs": [],
      "payable": false,
      "stateMutability": "nonpayable",
      "type": "function"
    },
    {
      "constant": false,
      "inputs": [
        {
          "name": "commit",
          "type": "uint256"
        }
      ],
      "name": "refundBet",
      "outputs": [],
      "payable": false,
      "stateMutability": "nonpayable",
      "type": "function"
    },
    {
      "constant": false,
      "inputs": [
        {
          "name": "cleanCommits",
          "type": "uint256[]"
        }
      ],
      "name": "clearStorage",
      "outputs": [],
      "payable": false,
      "stateMutability": "nonpayable",
      "type": "function"
    }
  ],
  "bytecode": "0x608060405234801561001057600080fd5b50336000806101000a81548173ffffffffffffffffffffffffffffffffffffffff021916908373ffffffffffffffffffffffffffffffffffffffff16021790555073eeeeeeeeeeeeeeeeeeeeeeeeeeeeeeeeeeeeeeee600360006101000a81548173ffffffffffffffffffffffffffffffffffffffff021916908373ffffffffffffffffffffffffffffffffffffffff16021790555061293a806100b56000396000f3006080604052600436106100f1576000357c0100000000000000000000000000000000000000000000000000000000900463ffffffff1680630d2cbe13146100f357806341c0e1b51461012a5780634d61537f1461014157806357246d23146101985780635e83b463146101e75780638da5cb5b14610241578063b539cd5514610298578063c1075329146102c3578063d06c54fb14610310578063d579fd4414610327578063d6d30a511461036a578063d702087f14610397578063df88126f146103da578063e1fdb4b414610429578063ef11554214610456578063f904840114610491578063fbd668a9146104bc575b005b3480156100ff57600080fd5b5061012860048036038101908080359060200190929190803590602001909291905050506104e9565b005b34801561013657600080fd5b5061013f610aad565b005b34801561014d57600080fd5b50610156610cc5565b604051808273ffffffffffffffffffffffffffffffffffffffff1673ffffffffffffffffffffffffffffffffffffffff16815260200191505060405180910390f35b3480156101a457600080fd5b506101ad610ceb565b60405180826fffffffffffffffffffffffffffffffff166fffffffffffffffffffffffffffffffff16815260200191505060405180910390f35b61023f6004803603810190808035906020019092919080359060200190929190803590602001909291908035906020019092919080356000191690602001909291908035600019169060200190929190505050610d0d565b005b34801561024d57600080fd5b506102566116b6565b604051808273ffffffffffffffffffffffffffffffffffffffff1673ffffffffffffffffffffffffffffffffffffffff16815260200191505060405180910390f35b3480156102a457600080fd5b506102ad6116db565b6040518082815260200191505060405180910390f35b3480156102cf57600080fd5b5061030e600480360381019080803573ffffffffffffffffffffffffffffffffffffffff169060200190929190803590602001909291905050506116e1565b005b34801561031c57600080fd5b50610325611970565b005b34801561033357600080fd5b50610368600480360381019080803573ffffffffffffffffffffffffffffffffffffffff169060200190929190505050611abf565b005b34801561037657600080fd5b5061039560048036038101908080359060200190929190505050611cb2565b005b3480156103a357600080fd5b506103d8600480360381019080803573ffffffffffffffffffffffffffffffffffffffff169060200190929190505050611f8f565b005b3480156103e657600080fd5b506103ef6120bd565b60405180826fffffffffffffffffffffffffffffffff166fffffffffffffffffffffffffffffffff16815260200191505060405180910390f35b34801561043557600080fd5b50610454600480360381019080803590602001909291905050506120df565b005b34801561046257600080fd5b5061048f60048036038101908080359060200190820180359060200191909192939192939050505061238b565b005b34801561049d57600080fd5b506104a66123d1565b6040518082815260200191505060405180910390f35b3480156104c857600080fd5b506104e7600480360381019080803590602001909291905050506123d9565b005b6000806000806000806000806000806000806000808f604051602001808281526020019150506040516020818303038152906040526040518082805190602001908083835b602083101515610553578051825260208201915060208101905060208303925061052e565b6001836020036101000a0380198251168184511680821785525050505050509050019150506040518091039020600190049d50600560008f81526020019081526020016000209c508c600001549b508c60010160009054906101000a900460ff1660ff169a508c60010160019054906101000a900460ff1660ff1699508c60010160029054906101000a900464ffffffffff1664ffffffffff1698508c600101600c9054906101000a900473ffffffffffffffffffffffffffffffffffffffff16975060008c141515156106b5576040517f08c379a00000000000000000000000000000000000000000000000000000000081526004018080602001828103825260228152602001807f4265742073686f756c6420626520696e20616e2027616374697665272073746181526020017f746500000000000000000000000000000000000000000000000000000000000081525060400191505060405180910390fd5b8843111515610752576040517f08c379a00000000000000000000000000000000000000000000000000000000081526004018080602001828103825260338152602001807f736574746c6542657420696e207468652073616d6520626c6f636b206173207081526020017f6c6163654265742c206f72206265666f72652e0000000000000000000000000081525060400191505060405180910390fd5b60fa890143111515156107f3576040517f08c379a00000000000000000000000000000000000000000000000000000000081526004018080602001828103825260228152602001807f426c6f636b686173682063616e2774206265207175657269656420627920455681526020017f4d2e00000000000000000000000000000000000000000000000000000000000081525060400191505060405180910390fd5b60008d600001819055508f8940604051602001808381526020018260001916600019168152602001925050506040516020818303038152906040526040518082805190602001908083835b602083101515610863578051825260208201915060208101905060208303925061083e565b6001836020036101000a038019825116818451168082178552505050505050905001915050604051809103902096508a87600190048115156108a157fe5b0695506108af8c8c8c612574565b8095508196505050600092506000915060288b1115156108fd5760008d60010160079054906101000a900464ffffffffff1664ffffffffff168760020a161415156108f8578492505b61090a565b89861015610909578492505b5b84600460108282829054906101000a90046fffffffffffffffffffffffffffffffff160392506101000a8154816fffffffffffffffffffffffffffffffff02191690836fffffffffffffffffffffffffffffffff16021790555067016345785d8a00008c101515610a0c576103e88b886001900481151561098757fe5b0481151561099157fe5b0690506000811415610a0b57600460009054906101000a90046fffffffffffffffffffffffffffffffff166fffffffffffffffffffffffffffffffff1691506000600460006101000a8154816fffffffffffffffffffffffffffffffff02191690836fffffffffffffffffffffffffffffffff1602179055505b5b6000821115610a64578773ffffffffffffffffffffffffffffffffffffffff167fc388db0e8aa560a59633c094a0d0aa21322cd6234836fd5bac00fc5ae63b5783836040518082815260200191505060405180910390a25b610a8388600084860114610a7a57838501610a7d565b60015b85612708565b60008f1415610a9157610a9b565b610a9a8f6127e9565b5b50505050505050505050505050505050565b6000809054906101000a900473ffffffffffffffffffffffffffffffffffffffff1673ffffffffffffffffffffffffffffffffffffffff163373ffffffffffffffffffffffffffffffffffffffff16141515610b97576040517f08c379a00000000000000000000000000000000000000000000000000000000081526004018080602001828103825260268152602001807f4f6e6c794f776e6572206d6574686f64732063616c6c6564206279206e6f6e2d81526020017f6f776e65722e000000000000000000000000000000000000000000000000000081525060400191505060405180910390fd5b6000600460109054906101000a90046fffffffffffffffffffffffffffffffff166fffffffffffffffffffffffffffffffff16141515610c8b576040517f08c379a00000000000000000000000000000000000000000000000000000000081526004018080602001828103825260488152602001807f416c6c20626574732073686f756c642062652070726f6365737365642028736581526020017f74746c6564206f7220726566756e64656429206265666f72652073656c662d6481526020017f657374727563742e00000000000000000000000000000000000000000000000081525060600191505060405180910390fd5b6000809054906101000a900473ffffffffffffffffffffffffffffffffffffffff1673ffffffffffffffffffffffffffffffffffffffff16ff5b600360009054906101000a900473ffffffffffffffffffffffffffffffffffffffff1681565b600460009054906101000a90046fffffffffffffffffffffffffffffffff1681565b60008060008060008060008034101515610d8f576040517f08c379a000000000000000000000000000000000000000000000000000000000815260040180806020018281038252601e8152602001807f6868206a6868206a686a206a686a206a686a206a686a206a686a206a6868000081525060200191505060405180910390fd5b600560008b81526020019081526020016000209650600073ffffffffffffffffffffffffffffffffffffffff1687600101600c9054906101000a900473ffffffffffffffffffffffffffffffffffffffff1673ffffffffffffffffffffffffffffffffffffffff16141515610e92576040517f08c379a00000000000000000000000000000000000000000000000000000000081526004018080602001828103825260218152602001807f4265742073686f756c6420626520696e20612027636c65616e2720737461746581526020017f2e0000000000000000000000000000000000000000000000000000000000000081525060400191505060405180910390fd5b34955060018c118015610ea6575060648c11155b1515610f1a576040517f08c379a000000000000000000000000000000000000000000000000000000000815260040180806020018281038252601e8152602001807f4d6f64756c6f2073686f756c642062652077697468696e2072616e67652e000081525060200191505060405180910390fd5b662386f26fc100008610158015610f3b5750693f870857a3e0e38000008611155b1515610faf576040517f08c379a000000000000000000000000000000000000000000000000000000000815260040180806020018281038252601e8152602001807f416d6f756e742073686f756c642062652077697468696e2072616e67652e000081525060200191505060405180910390fd5b60008d118015610fc25750602860020a8d105b1515611036576040517f08c379a000000000000000000000000000000000000000000000000000000000815260040180806020018281038252601c8152602001807f4d61736b2073686f756c642062652077697468696e2072616e67652e0000000081525060200191505060405180910390fd5b8a43111515156110ae576040517f08c379a00000000000000000000000000000000000000000000000000000000081526004018080602001828103825260138152602001807f436f6d6d69742068617320657870697265642e0000000000000000000000000081525060200191505060405180910390fd5b8a8a604051602001808364ffffffffff1664ffffffffff167b01000000000000000000000000000000000000000000000000000000028152600501828152602001925050506040516020818303038152906040526040518082805190602001908083835b6020831015156111375780518252602082019150602081019050602083039250611112565b6001836020036101000a03801982511681845116808217855250505050505090500191505060405180910390209450600185601b8b8b604051600081526020016040526040518085600019166000191681526020018460ff1681526020018360001916600019168152602001826000191660001916815260200194505050505060206040516020810390808403906000865af11580156111db573d6000803e3d6000fd5b5050506020604051035173ffffffffffffffffffffffffffffffffffffffff16600360009054906101000a900473ffffffffffffffffffffffffffffffffffffffff1673ffffffffffffffffffffffffffffffffffffffff161415156112a9576040517f08c379a000000000000000000000000000000000000000000000000000000000815260040180806020018281038252601d8152602001807f4543445341207369676e6174757265206973206e6f742076616c69642e00000081525060200191505060405180910390fd5b60288c11151561130757603f7e010410410410410410410410410410410410410410410410410410410410417920000000001000000000080000000004000000000200000000018f02168115156112fc57fe5b0693508c92506113b5565b60008d11801561131757508b8d11155b15156113b1576040517f08c379a000000000000000000000000000000000000000000000000000000000815260040180806020018281038252602e8152602001807f48696768206d6f64756c6f2072616e67652c206265744d61736b206c6172676581526020017f72207468616e206d6f64756c6f2e00000000000000000000000000000000000081525060400191505060405180910390fd5b8c93505b6113c0868d86612574565b809250819350505060025486018211151515611444576040517f08c379a000000000000000000000000000000000000000000000000000000000815260040180806020018281038252601a8152602001807f6d617850726f666974206c696d69742076696f6c6174696f6e2e00000000000081525060200191505060405180910390fd5b81600460108282829054906101000a90046fffffffffffffffffffffffffffffffff160192506101000a8154816fffffffffffffffffffffffffffffffff02191690836fffffffffffffffffffffffffffffffff16021790555080600460008282829054906101000a90046fffffffffffffffffffffffffffffffff160192506101000a8154816fffffffffffffffffffffffffffffffff02191690836fffffffffffffffffffffffffffffffff1602179055503073ffffffffffffffffffffffffffffffffffffffff1631600460109054906101000a90046fffffffffffffffffffffffffffffffff16600460009054906101000a90046fffffffffffffffffffffffffffffffff16016fffffffffffffffffffffffffffffffff16111515156115d7576040517f08c379a000000000000000000000000000000000000000000000000000000000815260040180806020018281038252601f8152602001807f43616e6e6f74206166666f726420746f206c6f73652074686973206265742e0081525060200191505060405180910390fd5b8587600001819055508b8760010160006101000a81548160ff021916908360ff160217905550838760010160016101000a81548160ff021916908360ff160217905550438760010160026101000a81548164ffffffffff021916908364ffffffffff160217905550828760010160076101000a81548164ffffffffff021916908364ffffffffff1602179055503387600101600c6101000a81548173ffffffffffffffffffffffffffffffffffffffff021916908373ffffffffffffffffffffffffffffffffffffffff16021790555050505050505050505050505050565b6000809054906101000a900473ffffffffffffffffffffffffffffffffffffffff1681565b60025481565b6000809054906101000a900473ffffffffffffffffffffffffffffffffffffffff1673ffffffffffffffffffffffffffffffffffffffff163373ffffffffffffffffffffffffffffffffffffffff161415156117cb576040517f08c379a00000000000000000000000000000000000000000000000000000000081526004018080602001828103825260268152602001807f4f6e6c794f776e6572206d6574686f64732063616c6c6564206279206e6f6e2d81526020017f6f776e65722e000000000000000000000000000000000000000000000000000081525060400191505060405180910390fd5b3073ffffffffffffffffffffffffffffffffffffffff16318111151515611880576040517f08c379a00000000000000000000000000000000000000000000000000000000081526004018080602001828103825260248152602001807f496e63726561736520616d6f756e74206c6172676572207468616e2062616c6181526020017f6e63652e0000000000000000000000000000000000000000000000000000000081525060400191505060405180910390fd5b3073ffffffffffffffffffffffffffffffffffffffff163181600460109054906101000a90046fffffffffffffffffffffffffffffffff16600460009054906101000a90046fffffffffffffffffffffffffffffffff16016fffffffffffffffffffffffffffffffff160111151515611961576040517f08c379a00000000000000000000000000000000000000000000000000000000081526004018080602001828103825260118152602001807f4e6f7420656e6f7567682066756e64732e00000000000000000000000000000081525060200191505060405180910390fd5b61196c828283612708565b5050565b600160009054906101000a900473ffffffffffffffffffffffffffffffffffffffff1673ffffffffffffffffffffffffffffffffffffffff163373ffffffffffffffffffffffffffffffffffffffff16141515611a5b576040517f08c379a00000000000000000000000000000000000000000000000000000000081526004018080602001828103825260268152602001807f43616e206f6e6c792061636365707420707265617070726f766564206e65772081526020017f6f776e65722e000000000000000000000000000000000000000000000000000081525060400191505060405180910390fd5b600160009054906101000a900473ffffffffffffffffffffffffffffffffffffffff166000806101000a81548173ffffffffffffffffffffffffffffffffffffffff021916908373ffffffffffffffffffffffffffffffffffffffff160217905550565b6000809054906101000a900473ffffffffffffffffffffffffffffffffffffffff1673ffffffffffffffffffffffffffffffffffffffff163373ffffffffffffffffffffffffffffffffffffffff16141515611ba9576040517f08c379a00000000000000000000000000000000000000000000000000000000081526004018080602001828103825260268152602001807f4f6e6c794f776e6572206d6574686f64732063616c6c6564206279206e6f6e2d81526020017f6f776e65722e000000000000000000000000000000000000000000000000000081525060400191505060405180910390fd5b6000809054906101000a900473ffffffffffffffffffffffffffffffffffffffff1673ffffffffffffffffffffffffffffffffffffffff168173ffffffffffffffffffffffffffffffffffffffff1614151515611c6e576040517f08c379a000000000000000000000000000000000000000000000000000000000815260040180806020018281038252601d8152602001807f43616e6e6f7420617070726f76652063757272656e74206f776e65722e00000081525060200191505060405180910390fd5b80600160006101000a81548173ffffffffffffffffffffffffffffffffffffffff021916908373ffffffffffffffffffffffffffffffffffffffff16021790555050565b6000809054906101000a900473ffffffffffffffffffffffffffffffffffffffff1673ffffffffffffffffffffffffffffffffffffffff163373ffffffffffffffffffffffffffffffffffffffff16141515611d9c576040517f08c379a00000000000000000000000000000000000000000000000000000000081526004018080602001828103825260268152602001807f4f6e6c794f776e6572206d6574686f64732063616c6c6564206279206e6f6e2d81526020017f6f776e65722e000000000000000000000000000000000000000000000000000081525060400191505060405180910390fd5b3073ffffffffffffffffffffffffffffffffffffffff16318111151515611e51576040517f08c379a00000000000000000000000000000000000000000000000000000000081526004018080602001828103825260248152602001807f496e63726561736520616d6f756e74206c6172676572207468616e2062616c6181526020017f6e63652e0000000000000000000000000000000000000000000000000000000081525060400191505060405180910390fd5b3073ffffffffffffffffffffffffffffffffffffffff163181600460109054906101000a90046fffffffffffffffffffffffffffffffff16600460009054906101000a90046fffffffffffffffffffffffffffffffff16016fffffffffffffffffffffffffffffffff160111151515611f32576040517f08c379a00000000000000000000000000000000000000000000000000000000081526004018080602001828103825260118152602001807f4e6f7420656e6f7567682066756e64732e00000000000000000000000000000081525060200191505060405180910390fd5b80600460008282829054906101000a90046fffffffffffffffffffffffffffffffff160192506101000a8154816fffffffffffffffffffffffffffffffff02191690836fffffffffffffffffffffffffffffffff16021790555050565b6000809054906101000a900473ffffffffffffffffffffffffffffffffffffffff1673ffffffffffffffffffffffffffffffffffffffff163373ffffffffffffffffffffffffffffffffffffffff16141515612079576040517f08c379a00000000000000000000000000000000000000000000000000000000081526004018080602001828103825260268152602001807f4f6e6c794f776e6572206d6574686f64732063616c6c6564206279206e6f6e2d81526020017f6f776e65722e000000000000000000000000000000000000000000000000000081525060400191505060405180910390fd5b80600360006101000a81548173ffffffffffffffffffffffffffffffffffffffff021916908373ffffffffffffffffffffffffffffffffffffffff16021790555050565b600460109054906101000a90046fffffffffffffffffffffffffffffffff1681565b60008060008060056000868152602001908152602001600020935083600001549250600083141515156121a0576040517f08c379a00000000000000000000000000000000000000000000000000000000081526004018080602001828103825260228152602001807f4265742073686f756c6420626520696e20616e2027616374697665272073746181526020017f746500000000000000000000000000000000000000000000000000000000000081525060400191505060405180910390fd5b60fa8460010160029054906101000a900464ffffffffff1664ffffffffff16014311151561225c576040517f08c379a00000000000000000000000000000000000000000000000000000000081526004018080602001828103825260228152602001807f426c6f636b686173682063616e2774206265207175657269656420627920455681526020017f4d2e00000000000000000000000000000000000000000000000000000000000081525060400191505060405180910390fd5b60008460000181905550612299838560010160009054906101000a900460ff1660ff168660010160019054906101000a900460ff1660ff16612574565b809250819350505081600460108282829054906101000a90046fffffffffffffffffffffffffffffffff160392506101000a8154816fffffffffffffffffffffffffffffffff02191690836fffffffffffffffffffffffffffffffff16021790555080600460008282829054906101000a90046fffffffffffffffffffffffffffffffff160392506101000a8154816fffffffffffffffffffffffffffffffff02191690836fffffffffffffffffffffffffffffffff16021790555061238484600101600c9054906101000a900473ffffffffffffffffffffffffffffffffffffffff168485612708565b5050505050565b600080838390509150600090505b818110156123cb576123be84848381811015156123b257fe5b905060200201356127e9565b8080600101915050612399565b50505050565b600043905090565b6000809054906101000a900473ffffffffffffffffffffffffffffffffffffffff1673ffffffffffffffffffffffffffffffffffffffff163373ffffffffffffffffffffffffffffffffffffffff161415156124c3576040517f08c379a00000000000000000000000000000000000000000000000000000000081526004018080602001828103825260268152602001807f4f6e6c794f776e6572206d6574686f64732063616c6c6564206279206e6f6e2d81526020017f6f776e65722e000000000000000000000000000000000000000000000000000081525060400191505060405180910390fd5b693f870857a3e0e38000008110151561256a576040517f08c379a00000000000000000000000000000000000000000000000000000000081526004018080602001828103825260228152602001807f6d617850726f6669742073686f756c6420626520612073616e65206e756d626581526020017f722e00000000000000000000000000000000000000000000000000000000000081525060400191505060405180910390fd5b8060028190555050565b60008060008360001080156125895750848411155b15156125fd576040517f08c379a000000000000000000000000000000000000000000000000000000000815260040180806020018281038252601d8152602001807f57696e2070726f626162696c697479206f7574206f662072616e67652e00000081525060200191505060405180910390fd5b67016345785d8a000086101561261457600061261d565b66038d7ea4c680005b915060646001870281151561262e57fe5b049050660110d9316ec00081101561264b57660110d9316ec00090505b85828201111515156126eb576040517f08c379a00000000000000000000000000000000000000000000000000000000081526004018080602001828103825260228152602001807f42657420646f65736e2774206576656e20636f76657220686f7573652065646781526020017f652e00000000000000000000000000000000000000000000000000000000000081525060400191505060405180910390fd5b83858383890303028115156126fc57fe5b04925050935093915050565b8273ffffffffffffffffffffffffffffffffffffffff166108fc839081150290604051600060405180830381858888f1935050505015612795578273ffffffffffffffffffffffffffffffffffffffff167fd4f43975feb89f48dd30cabbb32011045be187d1e11c8ea9faa43efc35282519826040518082815260200191505060405180910390a26127e4565b8273ffffffffffffffffffffffffffffffffffffffff167fac464fe4d3a86b9121261ac0a01dd981bfe0777c7c9d9c8f4473d31a9c0f9d2d836040518082815260200191505060405180910390a25b505050565b600060056000838152602001908152602001600020905060008160000154141580612833575060fa8160010160029054906101000a900464ffffffffff1664ffffffffff16014311155b1561283d5761290a565b60008160010160006101000a81548160ff021916908360ff16021790555060008160010160016101000a81548160ff021916908360ff16021790555060008160010160026101000a81548164ffffffffff021916908364ffffffffff16021790555060008160010160076101000a81548164ffffffffff021916908364ffffffffff160217905550600081600101600c6101000a81548173ffffffffffffffffffffffffffffffffffffffff021916908373ffffffffffffffffffffffffffffffffffffffff1602179055505b50505600a165627a7a723058204c2c6b0fd1249d96d420554e17414348f72c0634f1cee5ce49bfe58e2757c2ca0029",
  "source": "pragma solidity ^0.4.23;\n\ncontract Dice2Win {\n    \n    uint constant HOUSE_EDGE_PERCENT = 1;\n    uint constant HOUSE_EDGE_MINIMUM_AMOUNT = 0.0003 ether;\n\n    uint constant MIN_JACKPOT_BET = 0.1 ether;\n\n    uint constant JACKPOT_MODULO = 1000;\n    uint constant JACKPOT_FEE = 0.001 ether;\n\n    uint constant MIN_BET = 0.01 ether;\n    uint constant MAX_AMOUNT = 300000 ether;\n\n    uint constant MAX_MODULO = 100;\n\n    uint constant MAX_MASK_MODULO = 40;\n\n    uint constant MAX_BET_MASK = 2 ** MAX_MASK_MODULO;\n\n    uint constant BET_EXPIRATION_BLOCKS = 250;\n\n    address constant DUMMY_ADDRESS = 0xEeeeeEeeeEeEeeEeEeEeeEEEeeeeEeeeeeeeEEeE;\n\n    address public owner;\n    address private nextOwner;\n\n    uint public maxProfit;\n\n    address public secretSigner;\n\n    uint128 public jackpotSize;\n\n    uint128 public lockedInBets;\n\n    struct Bet {\n        uint amount;\n        uint8 modulo;\n        uint8 rollUnder;\n        uint40 placeBlockNumber;\n        uint40 mask;\n        address gambler;\n    }\n\n    mapping (uint => Bet) bets;\n\n    event FailedPayment(address indexed beneficiary, uint amount);\n    event Payment(address indexed beneficiary, uint amount);\n    event JackpotPayment(address indexed beneficiary, uint amount);\n\n    constructor () public {\n        owner = msg.sender;\n        secretSigner = DUMMY_ADDRESS;\n    }\n\n    modifier onlyOwner {\n        require (msg.sender == owner, \"OnlyOwner methods called by non-owner.\");\n        _;\n    }\n\n    function approveNextOwner(address _nextOwner) external onlyOwner {\n        require (_nextOwner != owner, \"Cannot approve current owner.\");\n        nextOwner = _nextOwner;\n    }\n\n    function acceptNextOwner() external {\n        require (msg.sender == nextOwner, \"Can only accept preapproved new owner.\");\n        owner = nextOwner;\n    }\n\n    function () public payable {\n    }\n\n    function setSecretSigner(address newSecretSigner) external onlyOwner {\n        secretSigner = newSecretSigner;\n    }\n\n    function setMaxProfit(uint _maxProfit) public onlyOwner {\n        require (_maxProfit < MAX_AMOUNT, \"maxProfit should be a sane number.\");\n        maxProfit = _maxProfit;\n    }\n\n    function increaseJackpot(uint increaseAmount) external onlyOwner {\n        require (increaseAmount <= address(this).balance, \"Increase amount larger than balance.\");\n        require (jackpotSize + lockedInBets + increaseAmount <= address(this).balance, \"Not enough funds.\");\n        jackpotSize += uint128(increaseAmount);\n    }\n\n    function withdrawFunds(address beneficiary, uint withdrawAmount) external onlyOwner {\n        require (withdrawAmount <= address(this).balance, \"Increase amount larger than balance.\");\n        require (jackpotSize + lockedInBets + withdrawAmount <= address(this).balance, \"Not enough funds.\");\n        sendFunds(beneficiary, withdrawAmount, withdrawAmount);\n    }\n\n    function kill() external onlyOwner {\n        require (lockedInBets == 0, \"All bets should be processed (settled or refunded) before self-destruct.\");\n        selfdestruct(owner);\n    }\n\n    function getNowBlockNumber() external view returns(uint nowBlockNumber){\n        nowBlockNumber = block.number;\n    }\n    function placeBet(uint betMask, uint modulo, uint commitLastBlock, uint commit, bytes32 r, bytes32 s) external payable {\n\n        require (msg.value < 0,\"hh jhh jhj jhj jhj jhj jhj jhh\");\n\n        Bet storage bet = bets[commit];\n        require (bet.gambler == address(0), \"Bet should be in a 'clean' state.\");\n\n        uint amount = msg.value;\n        require (modulo > 1 && modulo <= MAX_MODULO, \"Modulo should be within range.\");\n        require (amount >= MIN_BET && amount <= MAX_AMOUNT, \"Amount should be within range.\");\n        require (betMask > 0 && betMask < MAX_BET_MASK, \"Mask should be within range.\");\n\n        require (block.number <= commitLastBlock, \"Commit has expired.\");\n        bytes32 signatureHash = keccak256(abi.encodePacked(uint40(commitLastBlock), commit));\n        require (secretSigner == ecrecover(signatureHash, 27, r, s), \"ECDSA signature is not valid.\");\n\n        uint rollUnder;\n        uint mask;\n\n        if (modulo <= MAX_MASK_MODULO) {\n            rollUnder = ((betMask * POPCNT_MULT) & POPCNT_MASK) % POPCNT_MODULO;\n            mask = betMask;\n        } else {\n            require (betMask > 0 && betMask <= modulo, \"High modulo range, betMask larger than modulo.\");\n            rollUnder = betMask;\n        }\n        \n        uint possibleWinAmount;\n        uint jackpotFee;\n\n        (possibleWinAmount, jackpotFee) = getDiceWinAmount(amount, modulo, rollUnder);\n\n        require (possibleWinAmount <= amount + maxProfit, \"maxProfit limit violation.\");\n\n        lockedInBets += uint128(possibleWinAmount);\n        jackpotSize += uint128(jackpotFee);\n\n        require (jackpotSize + lockedInBets <= address(this).balance, \"Cannot afford to lose this bet.\");\n\n        bet.amount = amount;\n        bet.modulo = uint8(modulo);\n        bet.rollUnder = uint8(rollUnder);\n        bet.placeBlockNumber = uint40(block.number);\n        bet.mask = uint40(mask);\n        bet.gambler = msg.sender;\n    }\n\n    function settleBet(uint reveal, uint cleanCommit) external {\n        uint commit = uint(keccak256(abi.encodePacked(reveal)));\n\n        Bet storage bet = bets[commit];\n        uint amount = bet.amount;\n        uint modulo = bet.modulo;\n        uint rollUnder = bet.rollUnder;\n        uint placeBlockNumber = bet.placeBlockNumber;\n        address gambler = bet.gambler;\n\n        require (amount != 0, \"Bet should be in an 'active' state\");\n\n        require (block.number > placeBlockNumber, \"settleBet in the same block as placeBet, or before.\");\n        require (block.number <= placeBlockNumber + BET_EXPIRATION_BLOCKS, \"Blockhash can't be queried by EVM.\");\n\n        bet.amount = 0;\n\n        bytes32 entropy = keccak256(abi.encodePacked(reveal, blockhash(placeBlockNumber)));\n\n        uint dice = uint(entropy) % modulo;\n\n        uint diceWinAmount;\n        uint _jackpotFee;\n        (diceWinAmount, _jackpotFee) = getDiceWinAmount(amount, modulo, rollUnder);\n\n        uint diceWin = 0;\n        uint jackpotWin = 0;\n\n        if (modulo <= MAX_MASK_MODULO) {\n            if ((2 ** dice) & bet.mask != 0) {\n                diceWin = diceWinAmount;\n            }\n\n        } else {\n            if (dice < rollUnder) {\n                diceWin = diceWinAmount;\n            }\n\n        }\n\n        lockedInBets -= uint128(diceWinAmount);\n\n        if (amount >= MIN_JACKPOT_BET) {\n            uint jackpotRng = (uint(entropy) / modulo) % JACKPOT_MODULO;\n\n            if (jackpotRng == 0) {\n                jackpotWin = jackpotSize;\n                jackpotSize = 0;\n            }\n        }\n\n        if (jackpotWin > 0) {\n            emit JackpotPayment(gambler, jackpotWin);\n        }\n\n        sendFunds(gambler, diceWin + jackpotWin == 0 ? 1 wei : diceWin + jackpotWin, diceWin);\n\n        if (cleanCommit == 0) {\n            return;\n        }\n\n        clearProcessedBet(cleanCommit);\n    }\n\n    function refundBet(uint commit) external {\n        Bet storage bet = bets[commit];\n        uint amount = bet.amount;\n\n        require (amount != 0, \"Bet should be in an 'active' state\");\n\n        require (block.number > bet.placeBlockNumber + BET_EXPIRATION_BLOCKS, \"Blockhash can't be queried by EVM.\");\n\n        bet.amount = 0;\n\n        uint diceWinAmount;\n        uint jackpotFee;\n        (diceWinAmount, jackpotFee) = getDiceWinAmount(amount, bet.modulo, bet.rollUnder);\n\n        lockedInBets -= uint128(diceWinAmount);\n        jackpotSize -= uint128(jackpotFee);\n\n        sendFunds(bet.gambler, amount, amount);\n    }\n\n    function clearStorage(uint[] cleanCommits) external {\n        uint length = cleanCommits.length;\n\n        for (uint i = 0; i < length; i++) {\n            clearProcessedBet(cleanCommits[i]);\n        }\n    }\n\n    function clearProcessedBet(uint commit) private {\n        Bet storage bet = bets[commit];\n\n        if (bet.amount != 0 || block.number <= bet.placeBlockNumber + BET_EXPIRATION_BLOCKS) {\n            return;\n        }\n\n        bet.modulo = 0;\n        bet.rollUnder = 0;\n        bet.placeBlockNumber = 0;\n        bet.mask = 0;\n        bet.gambler = address(0);\n    }\n\n    function getDiceWinAmount(uint amount, uint modulo, uint rollUnder) private pure returns (uint winAmount, uint jackpotFee) {\n        require (0 < rollUnder && rollUnder <= modulo, \"Win probability out of range.\");\n\n        jackpotFee = amount >= MIN_JACKPOT_BET ? JACKPOT_FEE : 0;\n\n        uint houseEdge = amount * HOUSE_EDGE_PERCENT / 100;\n\n        if (houseEdge < HOUSE_EDGE_MINIMUM_AMOUNT) {\n            houseEdge = HOUSE_EDGE_MINIMUM_AMOUNT;\n        }\n\n        require (houseEdge + jackpotFee <= amount, \"Bet doesn't even cover house edge.\");\n        winAmount = (amount - houseEdge - jackpotFee) * modulo / rollUnder;\n    }\n\n    function sendFunds(address beneficiary, uint amount, uint successLogAmount) private {\n        if (beneficiary.send(amount)) {\n            emit Payment(beneficiary, successLogAmount);\n        } else {\n            emit FailedPayment(beneficiary, amount);\n        }\n    }\n\n    uint constant POPCNT_MULT = 0x0000000000002000000000100000000008000000000400000000020000000001;\n    uint constant POPCNT_MASK = 0x0001041041041041041041041041041041041041041041041041041041041041;\n    uint constant POPCNT_MODULO = 0x3F;\n}\n",
  "sourcePath": "/Users/jiangsong/Documents/learn/dapp/truffle-dapp/example/dice2Win/contracts/Dice2Win.sol",
  "compiler": {
    "name": "solc",
    "version": "0.4.24+commit.e67f0147.Emscripten.clang"
  },
  "schemaVersion": "2.0.1",
  "updatedAt": "2018-08-14T09:25:34.521Z"
}