{
  "contractName": "Example",
  "abi": [
    {
      "constant": true,
      "inputs": [
        {
          "name": "h",
          "type": "bytes32"
        },
        {
          "name": "v",
          "type": "uint8"
        },
        {
          "name": "r",
          "type": "bytes32"
        },
        {
          "name": "s",
          "type": "bytes32"
        }
      ],
      "name": "testRecovery",
      "outputs": [
        {
          "name": "",
          "type": "address"
        }
      ],
      "payable": false,
      "stateMutability": "pure",
      "type": "function"
    }
  ],
  "bytecode": "0x608060405234801561001057600080fd5b5061030c806100206000396000f300608060405260043610610041576000357c0100000000000000000000000000000000000000000000000000000000900463ffffffff1680630242a5fc14610046575b600080fd5b34801561005257600080fd5b5061009e6004803603810190808035600019169060200190929190803560ff169060200190929190803560001916906020019092919080356000191690602001909291905050506100e0565b604051808273ffffffffffffffffffffffffffffffffffffffff1673ffffffffffffffffffffffffffffffffffffffff16815260200191505060405180910390f35b600080600186868686604051600081526020016040526040518085600019166000191681526020018460ff1660ff1681526020018360001916600019168152602001826000191660001916815260200194505050505060206040516020810390808403906000865af115801561015a573d6000803e3d6000fd5b5050506020604051035190507316d194af0220b2673618b5ef207479e86ac0a48573ffffffffffffffffffffffffffffffffffffffff168173ffffffffffffffffffffffffffffffffffffffff1614151561021d576040517f08c379a000000000000000000000000000000000000000000000000000000000815260040180806020018281038252600f8152602001807fe59388e59388e59388e59388e59388000000000000000000000000000000000081525060200191505060405180910390fd5b7391948957e37faa1630dd3f4611b0a89322d40ad273ffffffffffffffffffffffffffffffffffffffff168173ffffffffffffffffffffffffffffffffffffffff161415156102d4576040517f08c379a000000000000000000000000000000000000000000000000000000000815260040180806020018281038252600f8152602001807f646668646764666867666467666867000000000000000000000000000000000081525060200191505060405180910390fd5b809150509493505050505600a165627a7a723058200e7efd0dd6feafbabb367e86238607ed20e15dc276031713e1964e717c4e37f80029",
  "source": "pragma solidity ^0.4.24;\n\ncontract Example {\n    function testRecovery(bytes32 h, uint8 v, bytes32 r, bytes32 s) pure external returns (address) {\n       /* prefix might be needed for geth only\n        * https://github.com/ethereum/go-ethereum/issues/3731\n        */\n        // bytes memory prefix = \"\\x19Ethereum Signed Message:\\n32\";\n        // h = sha3(prefix, h);\n        address addr = ecrecover(h, v, r, s);\n        require(addr == 0x16d194Af0220b2673618b5ef207479e86AC0A485, \"哈哈哈哈哈\");\n        require(addr == 0x91948957E37faA1630Dd3f4611B0A89322D40ad2, \"dfhdgdfhgfdgfhg\");\n        return addr;\n    }\n}",
  "sourcePath": "/Users/jiangsong/Documents/learn/dapp/truffle-dapp/example/dice2Win/contracts/Example.sol",
  "compiler": {
    "name": "solc",
    "version": "0.4.24+commit.e67f0147.Emscripten.clang"
  },
  "schemaVersion": "2.0.1",
  "updatedAt": "2018-09-29T08:46:21.418Z"
}